:020000040800F2
:10000000F82100202D020008350200083702000800
:10001000390200083B0200083D0200080000000011
:100020000000000000000000000000003F02000887
:1000300041020008000000004302000845020008D9
:10004000470200084702000847020008470200086C
:10005000470200084702000847020008470200085C
:10006000470200084702000847020008470200084C
:10007000470200084702000847020008470200083C
:10008000470200084702000847020008470200082C
:10009000470200084702000847020008470200081C
:1000A0004702000847020008470200088D140008B4
:1000B000C914000847020008470200084702000868
:1000C00047020008470200084702000847020008EC
:1000D00047020008F91600082917000859170008F8
:1000E00047020008470200084702000847020008CC
:1000F00047020008470200084702000847020008BC
:1001000047020008470200084702000847020008AB
:1001100089170008B91700084702000847020008BD
:10012000470200084702000847020008470200088B
:10013000470200084702000847020008470200087B
:10014000470200084702000847020008470200086B
:10015000470200084702000847020008E9170008A4
:10016000470200084702000847020008470200084B
:10017000470200084702000847020008470200083B
:10018000470200084702000800F002F800F03EF8BD
:100190000AA090E8000C82448344AAF10107DA45E2
:1001A00001D100F033F8AFF2090EBAE80F0013F0F6
:1001B000010F18BFFB1A43F001031847B4200000D9
:1001C000D4200000103A24BF78C878C1FAD852076A
:1001D00024BF30C830C144BF04680C6070470000C1
:1001E0000023002400250026103A28BF78C1FBD840
:1001F000520728BF30C148BF0B6070471FB59DE84C
:10020000030001F0FDFD1FBD10B510BD01F06EFE35
:100210001146FFF7F3FF00F050F901F0A6FE03B41A
:10022000FFF7F2FF03BC01F0C5FD0000094880475D
:1002300009480047FEE7FEE7FEE7FEE7FEE7FEE7C8
:10024000FEE7FEE7FEE7FEE704480549054A064BE0
:10025000704700006D02000889010008F8010020C5
:10026000F8210020F8110020F81100207E480068D5
:1002700040F001007C49086000207B49083108609B
:100280007948006879490840774908607848091D2D
:100290000860081F006820F48020091F0860002003
:1002A00071490C3108604FF0006072490860704776
:1002B00070B5002000220223002402216A4D083577
:1002C0002D6805F00C0020B1042806D0082834D190
:1002D00007E0694D694E356033E0694D674E356022
:1002E0002FE0614D2D1D2D68C5F380545E4D2D1DF1
:1002F0002D6805F03F0154B1614DB5FBF1F55A4E43
:10030000361D3668C6F3881605FB06F209E05A4D1D
:10031000B5FBF1F5544E361D3668C6F3881605FB5D
:1003200006F2514D2D1D2D68C5F301456D1C6B0066
:10033000B2FBF3F5514E356003E04F4D4F4E356043
:1003400000BF00BF484D08352D68C5F303154D4E5D
:10035000705D4A4D2D68C540484E356070BD0CB586
:100360000020019000904048006840F480303E49F1
:10037000086000BF3C48006800F40030009001981D
:10038000401C0190009818B90198B0F5A06FF1D108
:100390003548006810F4003F02D00120009001E0D1
:1003A000002000900098012845D12F484030006877
:1003B00040F080502C49403108603348006840F4D8
:1003C00080403149086028480830006826490831D3
:1003D00008600846006840F400400860084600686D
:1003E00040F4A05008602948091F0860081F0068F1
:1003F00040F08070091F086000BF1B48006810F0C3
:10040000007FFAD040F205602149086016480830A4
:10041000006820F0030014490831086008460068AD
:1004200040F00200086000BF0F480830006800F08C
:100430000C000828F8D10C480830006820F40000AF
:1004400009490831086013480749843108600648A3
:10045000006840F080600449086000BF02480068FE
:1004600010F0006FFAD00CBD00380240FFFFF6FE1E
:100470001030002408ED00E00024F400000000200B
:1004800000127A0004000020007000400854400769
:10049000003C02400030005010B5BA4800680068C7
:1004A000B949C268B74800689047B8480068006812
:1004B000C168B6480068884710BD8CB000BF00BF57
:1004C0000125042001F008FE814600F02FFD814641
:1004D000AE48C0F800901C2001F0FEFD824600F0FE
:1004E00093FD8246A748C0F800A000680068016834
:1004F000A44800688847A449884206D1A3480068F8
:1005000000684168A148006888471C2001F0E4FDAC
:1005100083460020012307220221009004A800F056
:100520007FFE07460020012306220221009008A832
:1005300000F076FE80463B4642460121584601F0D7
:1005400057F983469248C0F800B0102001F0C4FD6E
:100550000446012100F0C4FF04468E4804601020C8
:1005600001F0BAFD0446022100F0BAFF04468A48B1
:1005700004604FF4827001F0AFFD039000F016F9B3
:100580008649039008601C2001F0A6FD0290834874
:100590000368804802687E480168029800F008F904
:1005A0007F490290086079480068006801687748D0
:1005B000006888477A4800680068016878480068E1
:1005C000884770480068006841686E48006888473E
:1005D000C2E006E06D480068006881686B4800680A
:1005E00088476F480068006841686D480068884720
:1005F0000028EFD06A480068006881686848006891
:1006000088470028E4D06548006890F80201002877
:1006100077D162480068C078012804D0022817D03A
:1006200003286CD13CE000205C490968887055487B
:10063000006800684168534800688847514800686E
:10064000006801694F48006888470225554E56E00A
:10065000022D1BD1514800688078431E494800682C
:10066000006887684D480268121D31464548006899
:10067000B84728B1012506204849096881F80201D8
:10068000464800688078401E064404E00420434940
:10069000096881F8020100204049096888702EE04D
:1006A00000203E4909688870022D21D13548006834
:1006B000006841693348006888470027DFF8E48014
:1006C00005E098F800003844C7B208F10108B045C9
:1006D000F7D3F843C7B2314800680079B84201D176
:1006E000032504E006202D49096881F8020105E090
:1006F00004202A49096881F80201012500BF04E0AD
:10070000FFE700202549096888700120234909680E
:1007100081F80301224800680068C1682048006829
:1007200088471F480068006801691D4800688847BD
:10073000032D11D1184800680068AFF2A3210268A8
:10074000154800689047144800680068164A002160
:1007500043681148006898473BE700B589B002A894
:1007600000F052FC01A800F0E1FB02A800F060FCE0
:10077000002102A800F0EBFC01A800F0ECFB09B09E
:1007800000BD00002C0000204A474F4B30000020E5
:100790001400002024000020280000203800002041
:1007A0003400002004400008400D030070470000A2
:1007B0002DE9F04104460D4616461F46204601F03D
:1007C00085FC0446F3482060F348006820B11822F5
:1007D000F2A1FEA001F094FAEF480460FD48056024
:1007E000FD480660276100206060A060E060204650
:1007F000BDE8F0812DE9F04104460D4616461F463E
:10080000DDF81880204601F061FC0446E1482060D4
:10081000E148006820B12A22E0A1ECA001F070FAC2
:10082000DD480460EB480560EB4806602761002066
:100830006060A060C4F80C802046BDE8F0812DE91E
:10084000F04704460D4616461F46DDE90889204656
:1008500001F03CFC0446CF482060CF48006820B13E
:100860003D22CEA1D9A001F04BFACB480460D94873
:100870000560D94806602761C4F80480C4F8089070
:100880000020E0602046BDE8F08710B50446E0682F
:1008900028B1E06801680A68002190470BE06068B1
:1008A00048B1606801680A6800219047A068016843
:1008B0000A680021904710BD10B50446C54800687D
:1008C000007E0A2822D2DFE800F005080B0E111482
:1008D000171A1D1F48F2D04010BD44F26820FBE7F4
:1008E00042F22830F8E741F26800F5E740F63400BC
:1008F000F2E740F24C40EFE740F22620ECE74FF4FD
:100900008C70E9E75A20E7E73720E5E74FF4E67215
:10091000A2A1AEA001F0F4F910B5AF4800680068DC
:100920008168AD48006888479B480068FFF7ADFFC5
:100930000020AA490870A748006800688168A54897
:100940000068884710BD70B593480068C08AA44904
:100950000C5C91480068C08AA2490968884246D266
:100960008D480068007EC8B18B480068C08A9C4BE7
:10097000185C80F02001974800680068026A95487A
:100980000068904784480068C08A401C8249096812
:10099000C88200208049096808764EE07E2C05D088
:1009A0007D2C03D0112C01D0132C0CD18948006868
:1009B00000687D21026A87480068904701207649D7
:1009C0000968087639E074480068C08A844B195C6D
:1009D000804800680068026A7E48006890476E4858
:1009E0000068C08A401C6C490968C88225E07948C3
:1009F00000680068C16977480068884775480068E2
:100A000000687E21026A7348006890477248006857
:100A10000068AFF2FB0102686F48006890476E48BB
:100A200005685D480068FFF747FF460028683246C2
:100A3000002143682846984700BF70BD10B566483E
:100A4000006800688168644800688847002063493E
:100A5000087010BD70B5002500265E48006800686B
:100A6000816A5C48006888475A4800680068416AA3
:100A700058480068884704467E2C0ED146480068D6
:100A8000007D7E2809D1544800680068816852487A
:100A9000006888470020514908705048007820B10C
:100AA00001281ED002281AD14FE07E2C18D1012037
:100AB0004A49087000204B490860474800680068B0
:100AC000AFF28701026844480068904742480068D6
:100AD0000068454A002143683F4800689847D9E0CC
:100AE000D8E03D480068006881683B480068884756
:100AF0007D2C0CD102203949087037480068006805
:100B0000394A00214368344800689847C2E07E2C87
:100B100001D10126BEE033480068B0F5817F12D8CC
:100B20002F483049096844542E480068401C2D491C
:100B300008602948006800682B4A0021436826485D
:100B400000689847A6E00125A4E0234800680068F3
:100B5000816821480068884722480068B0F5817F95
:100B600001D9012596E0312C60D0332C77D05D2C53
:100B700045D05E2C72D17E2019491A4A12688854D9
:100B800018480068401C1749086001201349087084
:100B900011482BE0082100083C0000202E2E5C5359
:100BA0006F757263655C325F436F6D6D6F6E5F531F
:100BB0006F757263655C5368646C634C69676874D5
:100BC0005F556172742E63707000000066616C7313
:100BD0006500000044000020400000204800002084
:100BE000640000204C000020400D030000680068F5
:100BF000C64A00214368C6480068984748E07D20FF
:100C0000C449C54A12688854C3480068401CC24998
:100C100008600120C1490870BD4800680068BB4AEF
:100C200000214368BA480068984731E01121B9486B
:100C3000B94A12688154B8480068401CB649086037
:100C40000120B6490870B24800680068AF4A002128
:100C50004368AF48006898471AE000E016E01321A7
:100C6000AC48AD4A12688154AB480068401CAA49A0
:100C700008600120A9490870A54800680068A34AD7
:100C800000214368A2480068984701E0012500BFA1
:100C900000BF00BF00BF4DB19D480068006881687B
:100CA0009B480068884700209C49087086B1984896
:100CB000006800688168964800688847984800681E
:100CC0000068C16896480068884701209549087007
:100CD00095480068047570BD10B5044690480068DA
:100CE000006801688E48006888478D480068006881
:100CF000AFF29F21C26A8A4800689047884800681E
:100D00000068AFF2BD31026B8548006890478648A5
:100D10000068FFF7BAFD8248006800688168804873
:100D20000068884700207D49087010BD01467D4855
:100D3000007808B1012070470020FCE730B5044678
:100D40000023002003E00D5C1D44EBB2401C9042E8
:100D5000F9D3D843C0B230BD10B504460020714964
:100D600008706D480088401E82B26A496E4800686B
:100D7000FFF7E4FF68490968491E664A515C8842EA
:100D800005D00520216981F80201012010BD6148CC
:100D90000078002836D15F484078F3282CD15D4890
:100DA00081785D480068001F814204D001202169DC
:100DB00081F80201EAE7002021690870554840786F
:100DC000216948705348807821698870002006E0C6
:100DD000504AC11C525C2169C91C0A54401C21693B
:100DE00089788142F4D80020216981F803012169C2
:100DF00081F802010120C9E70220216981F802017E
:100E00000120C3E7464800680068816844480068DC
:100E100088470020216981F8020100BFB6E770B55C
:100E200005460E46144600203A4908702869407865
:100E300048706EB1084686700020C87004222846AB
:100E4000FFF77CFF334908710520334908601AE039
:100E5000002030498870CC7000BF06E02969C91CA9
:100E60000A5C2C4B011D5A54401CA042F6D3201D95
:100E700082B228492846FFF761FF264A211D5054B7
:100E8000601D2549086070BD10B504462069827850
:100E900090F802112046FFF7C2FF10BD10B50446BE
:100EA000E06828B1E06801680A68012190470BE01A
:100EB000606848B1606801680A6801219047A068CD
:100EC00001680A680121904710BD10B50446144816
:100ED0000068006801691248006888471248006885
:100EE000FFF7DCFF0020E08220760D4800680068F4
:100EF0007E21026A0A480068904709480068006835
:100F0000416907480068884710BD0000400D030094
:100F100040000020640000204C0000204800002019
:100F200044000020490000203C00002012491349E1
:100F300001607047704770B50646FFF797F9104893
:100F4000046825460F49D1F8000280F3088800BFE5
:100F5000A84770BD704700BFBFF34F8F0A480068B5
:100F600000F4E06009490843001D07490860BFF329
:100F70004F8F00BF00BFFEE7982100082421000822
:100F800004420008004000080CED00E00000FA05F3
:100F9000704770477047000000487047CC01002040
:100FA00070B5064600F010FF056806F10B0020F052
:100FB0000704B4429CBF002070BD2B466A68BAB1DA
:100FC0001068A04210D304F1080188423CBF506869
:100FD000586007D35168101941601168091B0160FE
:100FE00058601460101D70BD13465268002AE7D186
:100FF0002146284600F0F0FE0028DED170BD704783
:101000005B070008040000007E497F4901607F49BA
:101010000860002105E0CB00021D22F811304A1CB7
:10102000D1B20C29F7DB704702467949086870474E
:1010300001467848006810F0004F05D07648754AA0
:101040000C3A106075481060002070470146082077
:10105000704A121F126802F48032B2F5803F01D14B
:10106000012018E06B4A121F126812F0100F01D015
:10107000052010E0674A121F126812F0EF0F01D02E
:10108000062008E0634A121F126812F0020F01D016
:10109000072000E00820704738B503460D460024BD
:1010A000082000901846FFF7D1FF009003E0184693
:1010B000FFF7CCFF00909DF800000128F7D02046F4
:1010C00038BDF0B507460C46154600264FF40051D2
:1010D0003846FFF7E1FF0646E6B94E48006820F4BF
:1010E00040704C4908600846006840F48070086011
:1010F0000846006840F00100086025804FF4005168
:101100003846FFF7C9FF06464248006820F0010054
:10111000404908603046F0BD2DE9F04381460D4658
:1011200016461F464FF0000800240CE0325B2919D8
:1011300036480068FFF7C5FFA41CB8F1000F02D0C5
:101140004046BDE8F083BC42F0D34046F9E7F8B52D
:1011500006460C4600942D480068006804236A4641
:101160002B49856829480068A847F8BD70B5064630
:101170000C4600254FF4302124480068FFF78CFF0F
:1011800005466DBB2348006820F440702149086083
:101190000846006840F4807008600846006820F047
:1011A000F80008600846006844F002010843194945
:1011B00008600846006840F4803008604FF4302131
:1011C00012480068FFF768FF05461248006820F0E3
:1011D0000200104908600846006820F0F800086026
:1011E000284670BD30B50546012406E0281D30F8BC
:1011F00014102846FFF7BAFF641C082CF6DB30BD3C
:1012000070470000002200087821000850000020EC
:1012100000400008103C024023016745AB89EFCD38
:101220002DE9F04104460D4616461F46DDF81880AC
:101230007448754820600F2E04DD072273A17EA03C
:1012400000F05EFD2671277365730A2D57D2DFE823
:1012500005F056050E172029323B444D7848A06012
:101260007848006840F001007649086047E0764819
:10127000A0607448006840F00200724908603EE0D7
:101280007248A0606F48006840F004006D49086033
:1012900035E06F48A0606B48006840F0080069497D
:1012A00008602CE06B48A0606648006840F01000C1
:1012B0006449086023E06848A0606248006840F024
:1012C0002000604908601AE06448A0605D4800683A
:1012D00040F040005B49086011E06148A060594857
:1012E000006840F080005749086008E05D48A06051
:1012F0005448006840F480705249086000BF00BF45
:10130000A068006821794A00032191408843A168C0
:101310000860A068806821794A00032191408843D1
:10132000A1688860A068806821794A000121914005
:101330000843A1688860A068C06821794A00032139
:1013400091408843A168C860207B20B1012803D068
:1013500002281DD10AE01BE0A068006821794A003C
:10136000012191400843A168086011E0A06800686D
:1013700021794A00012191400843A1680860A068D2
:1013800040682279012191400843A168486000BF6C
:1013900000BFB8F1000F05D1217901208840A16874
:1013A000488304E0217901208840A1680883204611
:1013B000BDE8F08129B9037901229A4083685A83F4
:1013C00004E0037901229A4083681A837047816898
:1013D0004969037901229A40114205D1027901211C
:1013E00091408268118304E0027901219140826872
:1013F000518370470146886800690A79D04000F03F
:101400000100704748220008342200082E2E5C5349
:101410006F757263655C355F53544D333246347873
:10142000785F536F757263655C50696E506F72744C
:101430002E6370700000000066616C736500000030
:101440000000024030380240000402400008024020
:10145000000C02400010024000140240001802403C
:10146000001C02400020024010B57348007830B9DB
:10147000724800884FF6FE71084070490880704835
:10148000006810B16E490868804710BD10B5FFF7BD
:10149000EBFF6A48008A20F002006849088210BD0C
:1014A00010B56548407840B94FF0804000884FF64D
:1014B000FE7108404FF0804108806148406810B1DB
:1014C0005F494868804710BD10B5FFF7E9FF4FF04E
:1014D0008040008A20F002004FF08041088210BD59
:1014E00070B504460D46574857482060022D00DC71
:1014F00004E0122255A15FA000F002FC002D00DDE7
:1015000004E0132251A15FA000F0FAFB60480078CC
:10151000284110F0010F00D104E015224BA15DA07D
:1015200000F0EEFB0120A8405949097808435849CA
:10153000087025712079012802D002280BD104E01F
:101540003E48A0601B20E06005E04FF08040A060B6
:101550001C20E06000BF00BF62B6204670BD02796B
:10156000521E374B43F8221070472DE9F0410446D4
:10157000884615462079401E2F4901F80080052D28
:1015800000D304E02E2231A14CA000F0B9FB2801C9
:101590004FF6FF71B0FBF1F72901781CB1FBF0F6B3
:1015A0004A48006840F0010048490860081F006888
:1015B00040F00100091F08600020A1680880A168B0
:1015C0004862A1680F85B0B2401CA168C862B0B281
:1015D000A1684863A068808940F00200A168888102
:1015E000E06840094FF0E02101EB8000D0F80001F5
:1015F000217B01F01F02012191400843E168490964
:101600004FF0E02202EB8101C1F80001A0680088E0
:1016100040F00100A1680880BDE8F0818168098878
:101620004FF6FE721140826811808168098A21F0AC
:1016300002018268118270476000002000000140B2
:101640005800002020220008EC2100082E2E5C53B8
:101650006F757263655C355F53544D333246347831
:10166000785F536F757263655C54696D65722E6344
:1016700070700000614368616E6E656C203C3D20B7
:1016800032000000614368616E6E656C203E300080
:101690005400002028285F5573656454696D657295
:1016A000203E3E20614368616E6E656C29202620D5
:1016B0003078303129203D3D203000006154696D83
:1016C000655573203E3D203500000000443802403F
:1016D00010B5FE48008810F0200F06D0FC48406886
:1016E00018B1FB494868804705E0FA48406810B1E6
:1016F000F8494868804710BD10B5FFF7E9FF10BDF5
:1017000010B5F548008810F0200F06D0F04880682A
:1017100018B1EF498868804705E0EE48806810B14D
:10172000EC498868804710BD10B5FFF7E9FF10BD90
:1017300010B5EA48008810F0200F06D0E448C068D1
:1017400018B1E349C868804705E0E248C06810B1B5
:10175000E049C868804710BD10B5FFF7E9FF10BD2C
:1017600010B5DF48008810F0200F06D0D848006977
:1017700018B1D7490869804705E0D648006910B11B
:10178000D4490869804710BD10B5FFF7E9FF10BDC7
:1017900010B5D448008810F0200F06D0CC4840691E
:1017A00018B1CB494869804705E0CA48406910B183
:1017B000C8494869804710BD10B5FFF7E9FF10BD63
:1017C00010B5C948008810F0200F06D0C0488069C5
:1017D00018B1BF498869804705E0BE48806910B1EB
:1017E000BC498869804710BD10B5FFF7E9FF10BDFF
:1017F0002DE9F04104460D4616461F46BB48BC483D
:101800002060072D02DA002D00DD04E00D22B9A1D1
:10181000C2A000F075FA25712661676162B62046A4
:10182000BDE8F08110B50279072A55D2DFE802F051
:101830005404101E2C3A4800C14A126842F01002AB
:10184000BF4B1A600721A14A82602522027343E040
:10185000BB4A121F126842F40032B94B1B1F1A60B8
:1018600007219D4A82602622027335E0B44A121F86
:10187000126842F48022B24B1B1F1A600721974A5C
:1018800082602722027327E0AD4A121F126842F4D9
:101890000022AB4B1B1F1A600821914A8260342240
:1018A000027319E0A64A121F126842F48012A44B78
:1018B0001B1F1A6008218B4A8260352202730BE0DD
:1018C0009F4A126842F020029D4B1A600821864A06
:1018D00082604722027300BF00BF0269527B0A2A5E
:1018E00057D2DFE802F056050E172029323B444D4F
:1018F000934A143A126842F00102914B143B1A6069
:1019000047E08F4A143A126842F002028C4B143BB3
:101910001A603EE08A4A143A126842F00402884B88
:10192000143B1A6035E0864A143A126842F0080205
:10193000834B143B1A602CE0814A143A126842F03F
:1019400010027F4B143B1A6023E07D4A143A126860
:1019500042F020027A4B143B1A601AE0784A143A9B
:10196000126842F04002764B143B1A6011E0744A50
:10197000143A126842F08002714B143B1A6008E07E
:101980006F4A143A126842F480726D4B143B1A602D
:1019900000BF00BF4269527B0A2A57D2DFE802F03B
:1019A00056050E172029323B444D654A143A1268F9
:1019B00042F00102624B143B1A6047E0604A143A5D
:1019C000126842F002025E4B143B1A603EE05C4A31
:1019D000143A126842F00402594B143B1A6035E085
:1019E000574A143A126842F00802554B143B1A60E9
:1019F0002CE0534A143A126842F01002504B143B48
:101A00001A6023E04E4A143A126842F020024C4B0E
:101A1000143B1A601AE04A4A143A126842F0400233
:101A2000474B143B1A6011E0454A143A126842F0E1
:101A30008002434B143B1A6008E0414A143A126892
:101A400042F480723E4B143B1A6000BF00BF026933
:101A50009268126803691B795C000323A3409A43D0
:101A600003699B681A6042699268126843691B792E
:101A70005C000323A3409A4343699B681A60026990
:101A80009268D26803691B795C000323A3409A43E0
:101A900003699B68DA6042699268D26843691B797E
:101AA0005C000323A3409A4343699B68DA600269A0
:101AB0009268526803691C790123A3409A43036921
:101AC0009B685A600269926812683BE0001001400E
:101AD00068010020800100200044004000480040D0
:101AE000004C00400050004000140140B0210008AC
:101AF0003C2100082E2E5C536F757263655C355F68
:101B000053544D3332463478785F536F7572636542
:101B10005C556172742E63707000000061506F72CA
:101B2000744E756D626572203C2037202626206138
:101B3000506F72744E756D6265723E300000000029
:101B40004438024003691B795C000223A3401A4316
:101B500003699B681A6042699268526843691C79FC
:101B60000123A3409A4343699B685A604269926883
:101B7000126843691B795C000223A3401A4343693E
:101B80009B681A6002691279082A0CDA0269926865
:101B9000126A03691B799B0001FA03F31A43036974
:101BA0009B681A620CE002699268526A03691B79A9
:101BB000083B9B0001FA03F31A4303699B685A62CE
:101BC00042691279082A0CDA42699268126A4369FA
:101BD0001B799B0001FA03F31A4343699B681A625D
:101BE0000CE042699268526A43691B79083B9B008A
:101BF00001FA03F31A4343699B685A628B22836894
:101C00001A818268928942F00C0283689A8190F965
:101C10000C2052094FF0E02303EB8202D2F800219E
:101C2000037B03F01F040123A3401A4390F90C30F7
:101C30005B094FF0E02404EB8303C3F800218268C2
:101C4000928942F4005283689A810822027610BD7C
:101C500070478168898941F02401826891817047C9
:101C60008168898921F024018268918170478168A7
:101C7000898941F00801826891817047816889896A
:101C800041F080018268918170478168898921F0E3
:101C900088018268918170478168898921F080017B
:101CA0008268918170478268918070470146886898
:101CB0008088C0B2704770B50446A068008810F0F4
:101CC000080F0BD02068416A20468847054609481E
:101CD000008820F008000749088070BD00BFFCE7BD
:101CE0000279054B43F8221070470279034B43F801
:101CF000221070470044004068010020800100204D
:101D00000EB5054614460E4612A000F03FF82846D0
:101D100000F03CF815A000F039F8304600F036F835
:101D200014A000F033F800218DF80B100A210DF1FA
:101D30000A008DF80A1007E0224694FBF1F401FB3B
:101D40001422303200F8012D002CF5DC00F01EF8D2
:101D500000F014F82A2A2A20617373657274696F7F
:101D60006E206661696C65643A2000002C2066690B
:101D70006C6520002C206C696E652000002000F04E
:101D8000A1F8FEF741FA012000F014F810B504465E
:101D900002E0641C00F006F820780028F9D110BD9C
:101DA00000F097B808B569468DF800000320ABBE77
:101DB00008BD000001491820ABBEFEE72600020066
:101DC000004870479801002000487047A00100209B
:101DD000704770477047704738B504460A46002080
:101DE0006946AFF30080002808BF38BD024600995D
:101DF000204600F0A0F8012038BD012000F0ECB82A
:101E0000F8B5AFF30080054600200C46102000BF57
:101E10000646A819A0420DD9324669460020AFF304
:101E20000080070008BF00F0D7F80098A04218BF54
:101E30000546C419FFF7C8FF05600746F01D20F0EE
:101E400007004619284600F00AF8B44208BFF8BD5A
:101E5000A21B31463868BDE8F84000F06CB800219C
:101E60000160C0E9011070471020704770B504464A
:101E7000051FFFF7A9FF0068002C14BF446870BD60
:101E8000002C18BFAC423CBF20466468F8D3016800
:101E90000A18AA4218BF456003D12A6805461144B2
:101EA000016028684119A1421CBF6C6070BD616867
:101EB000696021680844286070BD002801D0FFF7E0
:101EC00079BF704710B500F06FF8BDE81040FFF71C
:101ED000F4BF10B500F08BF8016919B1002202615E
:101EE000884701E080688047FFF748FF7546FFF7A5
:101EF00067FFAE4605006946534620F00700854659
:101F000018B020B5FEF7A0F9BDE820404FF000065C
:101F10004FF000074FF000084FF0000B21F00701D1
:101F2000AC46ACE8C009ACE8C009ACE8C009ACE814
:101F3000C0098D467047034640688C46002818BF8C
:101F400088423CBF03464068F8D31868184488426A
:101F500007D00CF1030020F00700001D411A521AAF
:101F60000146081D0A60FFF781BF0446AFF30080F9
:101F70002046FEF754F970B505460C460A2000E0ED
:101F80006D1CFFF70FFF35B128780028F8D102E06B
:101F9000641CFFF707FF14B120780028F8D1BDE8D2
:101FA00070400A20FFF7FEBE10B5002102A0FFF727
:101FB000E2FF012010BD0000534947414252543A0C
:101FC0002041626E6F726D616C207465726D696E16
:101FD0006174696F6E00000010B500F031F8BDE863
:101FE0001040FFF76ABF000010B5FFF7C7FE70B5DD
:101FF00000F022F804680546A4B92020FEF7D0FFBF
:10200000040011D0094900202C60C4E900010849EE
:10201000A1602073206160610649A06109B100F0F0
:1020200037F8E061204670BDFFF7A8FE0000000011
:10203000E91F00080000000000487047D40100209C
:1020400010B5012805D0002103A0FFF794FF01205F
:1020500010BD09A1F8E7000053494752544D454DC2
:102060003A204F7574206F662068656170206D6539
:102070006D6F7279000000003A2048656170206D34
:10208000656D6F727920636F72727570746564002C
:1020900010B58820FEF784FF002801D000210170D0
:1020A00010BD802902D808B1017809B1002070471D
:1020B000012100F8081B704718B100F10802914295
:1020C00001D0002070470021017070470149016074
:1020D000704700005C22000810B5040007D10124FD
:1020E00005E0FEF759FF006800B904488047204624
:1020F000FEF756FF0028F4D010BD0000A11D000817
:102100000000000000000000D90C00082D0D0008A0
:10211000590D0008890E0008CB0E000800000000D1
:1021200000000000350F0008370F0008550F0008A9
:10213000570F0008000000000000000025180008EC
:10214000511C0008531C0008611C00086F1C00088B
:102150007D1C00088B1C0008991C0008A71C0008A7
:10216000AD1C0008B71C0008E11C0008EB1C0008AF
:1021700000000000000000002910000831100008D5
:10218000191100084F110008E5110008011200089C
:10219000000000000000000000000000000000003F
:1021A000000000000000000000000000000000002F
:1021B000000000000000000000000000000000001F
:1021C000000000000000000000000000000000000F
:1021D00000000000000000000000000000000000FF
:1021E0000000000000000000000000005F15000873
:1021F0006B1500081D16000800000000000000001C
:1022000000000000000000000000000000000000CE
:1022100000000000000000000000000000000000BE
:1022200000000000000000000000000000000000AE
:1022300000000000B5130008CF130008F5130008D4
:10224000000000000000000000000000000000008E
:10225000000000000000000000000000000000007E
:10226000000000000000000000000000000000006E
:10227000902200080000002064000000C401000853
:10228000F42200086400002094210000E00100080E
:10229000007A030A000000000000000001020304AD
:1022A0000607080900000000000000000000000010
:1022B000000000000000000000000000000000001E
:1022C000000000000000000000000000000000000E
:1022D00000000000000000000000000000000000FE
:1022E00000000000000000000000000000000000EE
:0422F00000000000EA
:044000004A474F4B91
:020000040800F2
:0440040000000600B2
:020000040800F2
:0440080002050000AD
:020000040800F2
:1042000000000120D5C00008DDC00008DFC00008A4
:10421000E1C00008E3C00008E5C00008000000009D
:10422000000000000000000000000000E7C00008DF
:10423000E9C0000800000000EBC00008EDC0000865
:10424000EFC00008EFC00008EFC00008EFC0000892
:10425000EFC00008EFC00008EFC00008EFC0000882
:10426000EFC00008EFC00008EFC00008EFC0000872
:10427000EFC00008EFC00008EFC00008EFC0000862
:10428000EFC00008EFC00008EFC000080000000009
:10429000000000000000000000000000EFC0000867
:1042A000EFC00008EFC00008EFC00008EFC0000832
:1042B000EFC00008EFC00008EFC00008EFC0000822
:1042C000EFC00008EFC00008EFC00008EFC0000812
:1042D000EFC00008EFC00008EFC0000800000000B9
:1042E000EFC00008EFC00008EFC0000800000000A9
:1042F000000000000000000000000000EFC0000807
:1043000000000000EFC00008EFC00008EFC0000888
:10431000000000000000000000000000000000009D
:10432000EFC00008EFC00008EFC00008EFC00008B1
:10433000EFC00008000000000000000000000000C6
:10434000000000000000000000000000EFC00008B6
:10435000EFC00008EFC00008EFC00008EFC0000881
:10436000EFC00008EFC000080000000000000000DF
:10437000000000000000000000000000000000003D
:1043800000000000EFC00008000000000000000076
:10439000EFC0000800F002F807F092FE0AA090E8D3
:1043A000000C82448344AAF10107DA4501D107F0E9
:1043B00087FEAFF2090EBAE80F0013F0010F18BF25
:1043C000FB1A43F0010318474000000060000000A2
:1043D000103A24BF78C878C1FAD8520724BF30C831
:1043E00030C144BF04680C60704700000023002403
:1043F00000250026103A28BF78C1FBD8520728BFF5
:1044000030C148BF0B607047284400089401002069
:1044100044000000D04300086C440008D80100208C
:1044200060C30000EC430008C4620108B8620108E0
:10443000000000000000000000000000000000007C
:104440000000000000BD01050000000000000000A9
:10445000000000000000000000000000000000005C
:0C44600000000000000000000000000050
:020000040800F2
:04800000000000007C
:020000040800F2
:10C000006E2900F08B85702900F0D180662909F037
:10C01000C885652909F0C585672909F0C2856129A8
:10C0200009F0C18503681B0A28BF41F08001692916
:10C0300000F03885642900F03585752900F03285D7
:10C040006F2900F06D86782900F09D80E92900F0C5
:10C050000786E42900F00486F52900F00186EF291F
:10C0600000F06A86F82900F09C800368DB0928BF8D
:10C0700041F08001632901F09185732901F09685D3
:10C08000E32901F0A185F32901F0A685002070477E
:10C090001FB509F07CFD9DE8030001F065F902F091
:10C0A00003F804000020002109F0F2FA401C60604F
:10C0B0000020002109F0D6FAE06001F093F81FBDDE
:10C0C00008F0E6F81146FFF7E3FF02F058FD08F02C
:10C0D00049FB00000648804706480047FEE7FEE7A8
:10C0E000FEE7FEE7FEE7FEE7FEE7FEE7FEE7FEE728
:10C0F00081030108954300080B460146184600F0ED
:10C100003FBD00000FB41CB5084B06AA7B4469462E
:10C110000090059800F01BFD04460020694600F0E1
:10C1200029FD20461CBC5DF814FB0000650A0000D8
:10C13000F0B40D460188090502D5214C7C4402E08B
:10C140001F4C7C440E34002100F1240608E002F06C
:10C150000F071209E75D42EA03721B097754491C75
:10C1600052EA0307F3D102780023120704D5702D99
:10C1700006D009B1022311342246F0BC00F038BCCD
:10C1800001231034F8E770B504460D4621461068C7
:10C1900000F0FCFB024629462046BDE87040002323
:10C1A000C6E7D21D22F00703D3E90023C0E70368E6
:10C1B000126843F0200303600823C3610023B7E73C
:10C1C000889F00002DE9F05F894604464FF0000A81
:10C1D000DFF874B1FB44C0F820A02046E16888472E
:10C1E000002874D0252806D0D4E901219047206A80
:10C1F000401C2062F1E700265F462046E168884740
:10C200002028054607DB312D05D2781910F8200CBF
:10C2100008B10643F1E7B00701D526F00406C4F8DB
:10C220001CA00027C4F818A02A2D09D0284608F021
:10C2300070F838B304EB8708303DC8F8185019E09F
:10C2400059F8041B204604EB87029161E168884796
:10C25000012F054618D1E069002820DA26F02006D3
:10C260001DE0D8F8180000EB800005EB40003038E6
:10C27000C8F818002046E1688847054608F049F8E4
:10C280000028EED1012F0AD02E2D08D12046E168DA
:10C2900088477F1C0546022F46F02006C4DBA069B4
:10C2A000002803DA404246F00106A061F00701D001
:10C2B00026F010066C2D0BD0682D09D04C2D39D0EE
:10C2C0006A2D35D0742D35D07A2D33D016E038E074
:10C2D000E1682F4620468847B842054609D16C2FB1
:10C2E00026D04FF48060E168064320468847054623
:10C2F00004E06C2F1AD04FF4807006430DB3A5F103
:10C300004100192802D8203546F400664A462946DD
:10C31000204626604E46FFF773FE80B101280BD001
:10C32000F61D26F0070000F1080956E74020E4E773
:10C330008020D8E70020D6E706F104094DE728461B
:10C3400052E7206ABDE8F09F189F00000FB400B5C7
:10C350008DB010A9099000910B904FF0FF300A901A
:10C3600000200C90064878440690064878446A46B7
:10C3700007900F9909A800F0FDFC0DB05DF814FBC3
:10C380002B0A0000430A00002DE9FF5F1D464FF015
:10C39000FF3B91464FF000085F46D5E90146A96989
:10C3A00001987F1C8847296A824688470028F6D171
:10C3B000BAF1FF3F0CD0002E24F4C06419DD6006F2
:10C3C00014D5BAF12B0F09D0BAF12D0F0ED103E01D
:10C3D000584604B0BDE8F09F44F48064A969019810
:10C3E0007F1C8847761E8246002E02DDBAF1300F90
:10C3F00003D0B9F1000F26D032E0A969761E01986A
:10C400007F1C44F400748847002E824605DDBAF193
:10C41000780F06D0BAF1580F03D0B9F1000F10D041
:10C420001EE0B9F1000F02D0B9F1100F18D1A969BF
:10C43000761E01987F1C24F40074884782461020E1
:10C4400002E0082000E00A20814609E0A96908FB13
:10C450000908761E01987F1C44F4007488478246C0
:10C46000002E05DD4946504600F070FC0028EDDA4C
:10C47000E96901988847A00502D46FF00100A8E798
:10C48000E00725D1600613D5600502D5C8F100008C
:10C4900000E0404629680A1D2A600968220501D586
:10C4A000087015E0220701D5088011E008600FE050
:10C4B0002868011D29600068210502D580F80080E8
:10C4C00006E0210702D5A0F8008001E0C0F8008056
:10C4D00038467EE770B50446C068810713D08006F1
:10C4E00001D5A56A04E0A169606808442169451A7C
:10C4F000204600F033FE002206462946204600F082
:10C5000059FD304670BD002070BD70B510B1BDE85A
:10C510007040DFE70025074C6E1E07E02046FFF75E
:10C52000D9FF00B13546206D20F00104002CF5D173
:10C53000284670BD18C400202DE9F0410C4607467E
:10C540001646104600F06EF82078611C61280AD06B
:10C55000722802D077283CD102E00125002405E0B2
:10C560000225042402E0082448F2020511F8010B18
:10C570002B2806D0622809D011F8010C74280AD0A3
:10C580000BE045F0030544F00204EFE745F0040535
:10C5900044F00104EAE744F010043846214607F06D
:10C5A00003FF411C15D00021316171604FF400710F
:10C5B000F560F1617061200704D530460222002148
:10C5C00000F0F8FC306D40F0010030653046BDE809
:10C5D000F0810020FBE72DE9F0410D460646104CA6
:10C5E000206DC10704D0410804D020F00104F7E712
:10C5F00022460EE0542000F043F907000ED0206DD3
:10C6000047F00101084354212065384600F0CCF87A
:10C610003A4629463046BDE8F0418DE70020D6E78E
:10C6200018C400202DE9F04704464FF000094FF0F0
:10C63000FF37C568D4E90486A80707D0204600F074
:10C640008DFD304607F06CFE002802DA3846BDE862
:10C65000F087280502D5404600F041F94C212046DC
:10C6600000F0A2F8206D20F0010020654846EEE7BA
:10C6700010B5431C02E010F8011B71B18107FAD11B
:10C680004FF0013202C88C1A8C4314EAC211F9D05F
:10C69000C01A0A0603D0C01E10BDC01A10BD0A047D
:10C6A00001D0801E10BD0902FCD0401E10BD40EA22
:10C6B000010370B59B072ED14FF00136042A2AD30F
:10C6C00008C810C99D1B9D43121F15EAC61517D037
:10C6D000D8B2E1B2401A50EA056110D198B2A1B2C5
:10C6E000401A50EA05410AD123F07F4024F07F41EF
:10C6F000401A50EA052102D1180EA0EB146070BD5B
:10C70000A342DBD018BA21BA884201D9012070BDFA
:10C710004FF0FF3070BD0AB9002070BD10F8013B2A
:10C7200011F8014B63B1A3420AD1521E08D010F890
:10C73000013B11F8014B1BB1A34201D1521EEDD1B7
:10C74000181B70BD10B5203AC0F00B80B1E818502E
:10C75000203AA0E81850B1E81850A0E81850BFF4EB
:10C76000F5AF5FEA027C24BFB1E81850A0E818508A
:10C7700044BF18C918C0BDE810405FEA827C24BFDE
:10C7800051F8043B40F8043B08BF7047D20728BF6C
:10C7900031F8023B48BF11F8012B28BF20F8023BBB
:10C7A00048BF00F8012B70474FF0000200B5134658
:10C7B00094469646203922BFA0E80C50A0E80C50C1
:10C7C000B1F12001BFF4F7AF090728BFA0E80C5072
:10C7D00048BF0CC05DF804EB890028BF40F8042B6B
:10C7E00008BF704748BF20F8022B11F0804F18BFD8
:10C7F00000F8012B704700004FF0013C50F8042B6B
:10C8000051F8043B9A4221D1A2EB0C03934313EA63
:10C81000CC1317D150F8042B51F8043B9A4215D190
:10C82000A2EB0C03934313EACC130BD150F8042B67
:10C8300051F8043B9A4209D1A2EB0C03934313EA4B
:10C84000CC13DBD04FF00000704700BFD01A01BA04
:10C85000B1FA81F101F0180122FA01F0CB40C1F1E7
:10C860002001DBB2C0B2C01A2CFA01F3D11A9143F5
:10C8700011EAC311E6D170470048704714C5002083
:10C8800070B5064600F054FD056806F10B0020F077
:10C890000704B4429CBF002070BD2B466A68BAB141
:10C8A0001068A04210D304F1080188423CBF5068D0
:10C8B000586007D35168101941601168091B016065
:10C8C00058601460101D70BD13465268002AE7D1ED
:10C8D0002146284600F034FD0028DED170BD70B539
:10C8E0000446051F00F024FD0068002C14BF4468B6
:10C8F00070BD002C18BFAC423CBF20466468F8D322
:10C9000001680A18AA4218BF456003D12A68054683
:10C910001144016028684119A1421CBF6C6070BDC0
:10C920006168696021680844286070BD70B504467C
:10C9300085690068C10601D5302600E02026C007C1
:10C9400007D070BDD4E9012130469047206A401CD1
:10C9500020626D1EF6D570BD70B5044685690078FD
:10C96000C00707D170BDD4E9012120209047206A7B
:10C97000401C20626D1EF6D570BD09684A0501D5C0
:10C9800040B27047C905FCD500B2704709684A0536
:10C9900001D5C0B27047C905FCD580B2704770B5EB
:10C9A0000C460546012A05D02878800600D5EA699C
:10C9B000002302E0012305E05B1C934202D2E05C0D
:10C9C0000028F9D1A869E618C01AA861286A184495
:10C9D00028622846FFF7AAFF04E0D5E9012114F8F0
:10C9E000010B9047B442F8D32846FFF7B5FF70BD5E
:10C9F0002DE9F0470D4699469246044600F1240879
:10CA00000168880604D5E06921F01001216000E08A
:10CA10000120A84201DD471B00E00027A1697A1927
:10CA200002EB0900081AA0612078C00602D4204653
:10CA3000FFF77CFF002608E0D4E901211AF8060080
:10CA40009047206A401C761C20624E45F4DB20781B
:10CA5000C0060AD52046FFF769FF06E0D4E90121A8
:10CA600030209047206A401C2062381EA7F1010741
:10CA7000F4DC07E0D4E9012118F805009047206AAA
:10CA8000401C2062281EA5F10105F3DC2046FFF7BB
:10CA900063FF2078000602D50220BDE8F087012060
:10CAA000FBE700002DE9F0410646002410687529D7
:10CAB000314616A510D0FFF760FF002802DA404289
:10CAC00013A507E031688A0701D512A502E04907DE
:10CAD00004D511A5012401E0FFF758FF00210A2227
:10CAE00006F1240709E0B0FBF2FCB0FBF2F302FB15
:10CAF0001C00303078541846491C0028F3D12346D6
:10CB00002A463046BDE8F041FFF772BF0000000042
:10CB10002D0000002B0000002000000011680268BA
:10CB2000006A530501D508700AE0D30501D50880D5
:10CB300006E0130603D5C217C1E9000200E0086051
:10CB40000120704701694A1C02610878704700B5EE
:10CB50008FB0CDE901310021059105497944CDE936
:10CB6000031011466846FFF72DFB0FB000BD000013
:10CB7000E5FFFFFF0A6802F8010B0A60704700003A
:10CB8000074B70B50D467B44FFF7E1FF044628468E
:10CB900000F020F910B14FF0FF3070BD204670BD9D
:10CBA000FB7B00002DE9FF5F15468A460446DFF84F
:10CBB000AC80F8440027D8E900103E46CDE90010CB
:10CBC00010E03AF816106A4602A801F0E4F9411C98
:10CBD00007D02178890603D5E269391891420DD82A
:10CBE0000744761C2078800602D5E069B84205DD4E
:10CBF000AE42E6DB3AF816000028E2D1A069C01B7D
:10CC0000A0612046FFF792FED8E90010CDE90010A0
:10CC1000002017E03AF818106A4602A801F0BBF9A4
:10CC2000B0F1FF3F81460BD000250DF1080B05E068
:10CC3000D4E901211BF8050090476D1C4D45F7D341
:10CC400008F10100B0428046E4DB206A38442062EB
:10CC50002046FFF781FEBDE8FF9F00004E950000D3
:10CC60002DE9F0418046D21D22F007020025D2E9CD
:10CC70000002F52915A614D0011E72F1000106DA92
:10CC80000023D0EB030063EB020211A608E0D8F802
:10CC900000108B0701D50FA602E0490701D50EA6AB
:10CCA00001251146002408F1240704E000F092FB5E
:10CCB00030323A55641C50EA0102F7D12B46324615
:10CCC00021464046BDE8F041FFF792BE000000005B
:10CCD0002D0000002B0000002000000030B40021D7
:10CCE00000F1240408E002F00705D208303542EADA
:10CCF0004372DB086554491C52EA0305F3D104680A
:10CD0000002310A2250708D504F020040C4304D00A
:10CD1000C46901230CA2641EC46130BCFFF768BE65
:10CD200010B5044621461068FFF730FE0246204643
:10CD3000BDE810400023D1E7D21D22F00701D1E960
:10CD40000023CBE700000000300000003A2800D2AA
:10CD5000303820F02002412A01D3A2F13700884266
:10CD600001D34FF0FF30704702681144137801601F
:10CD700018467047D16005497944516104497944A6
:10CD8000116200211161114600F02ABFEDFFFFFF83
:10CD9000DD060000426842B1016811F8013B23B191
:10CDA000521EC0E90012184670470121C160881E5A
:10CDB000704742685AB1C368016843B983688B42BF
:10CDC00005D0491E521CC0E90012002070474FF0E8
:10CDD000FF307047007B00F0800070472DE9F0477E
:10CDE00005460C46C86820F4201040F48000C86056
:10CDF000800602D5084600F0D4F9E06841F28201CD
:10CE00004FF0FF390140022903D0204600F072F9AB
:10CE1000B5E000F42041B1F5004F0FD1C00306D5B5
:10CE20006168E06A884200D80846606006E02069D0
:10CE3000E0626060606907F08BFAA061A068002280
:10CE4000EEB200280DDAE1688B050AD4C043A06079
:10CE500041F490302260E0606068411C61600670BF
:10CE6000A5E0E0689046226040F40050E060206950
:10CE700068BB606907F082FA012704F12405A0B1BC
:10CE8000A08910F4407F08D0E069FFF7F9FC206129
:10CE900018B1E06840F4006016E0E7612561E068E1
:10CEA00020F4407040F480600EE0E069FFF7E8FC99
:10CEB00000282061F1D0E06840F4006010F4407F69
:10CEC000E06002D140F48070E06020696060E0685A
:10CED00025696FF0010AC1051FD56168E06A8842C3
:10CEE00000D80846411B04D02246284600F00CF921
:10CEF000F0BBE068010203D5E562C4E9015854E0E3
:10CF0000691CE1626160E16940F48030491EC4E956
:10CF1000021030462E70BDE8F087010202D500F401
:10CF200080320AE06068411C61600670E0680A2E89
:10CF300040F48030E06006D00022E16A60688142FF
:10CF400003D90B4602E00122F7E70346A7895B1BE2
:10CF50007F0503D4E7699F4200DDE2B1814200D83A
:10CF60000146E5620F1AC4E90158002B09DD00E013
:10CF700005E022461946284600F0C6F808B14846A2
:10CF8000C9E747B1A069E5626560C01BA061E068C0
:10CF900040F01000E060E068000208D56168A06918
:10CFA000E562491B08446560A0615046B3E730461E
:10CFB000B1E700002DE9F041044616460D464769E9
:10CFC000007B80072ED0384607F0D8F950BB3EB31F
:10CFD000012E02D0022E25D104E0204600F0BAFF37
:10CFE00005441DE0384607F0B3F9E168002841F038
:10CFF0001001E16005DA204600F07CF80120BDE870
:10D00000F081C9030BD56268E16A914200D81146EC
:10D01000A26911442269891A814200DD084605444B
:10D02000002D01DA0220EAE7E16A6068E2688142E5
:10D0300006D29103E06203D522F4003141F01002E0
:10D04000A6690027AE4213DCE16A814201D90B4692
:10D0500000E0034603EB060C2369ACEB030CAC4584
:10D0600006DD814201D98C4600E084469C4505D10D
:10D07000A760276042F02000A5620DE0AD1BE669C5
:10D08000AE1B8142A66000D90846C01A281A20604B
:10D090005819606022F0200003490840E060002039
:10D0A00084F84870ABE70000BFCFD7FF70B5C46805
:10D0B000A50713D0650211D4B2F5807F09D0B2F56F
:10D0C000007F06D0B2F5806F08D1012300F1240162
:10D0D00006E05D1E6FF07F46B54201D3012070BDB2
:10D0E0000161C361416024F470611143C16000209B
:10D0F00070BD0000C16821F4001141F08001C160E1
:10D1000000218160016070472DE9F0478146144697
:10D110000E464FF0FF383248D5685769054209D0AE
:10D120003846A16907F0D8F9002811DB2C48C04324
:10D130000540E5602B4632464946384607F0E4F99B
:10D14000A16920F00042B21A11440028A16103D065
:10D150002046FFF7CFFF4046BDE8F08770B5044694
:10D160000569C06A6168884200D80846E16821F410
:10D170002011E160C90312D5A84208D02246411B04
:10D180002846FFF7C1FF10B14FF0FF3070BD0020FF
:10D19000E562C4E90150E06820F48030E0600020DE
:10D1A00070BD10B50446C06820F02000E060A16AA0
:10D1B000A06988420DD02046FFF7D0FFE06820F438
:10D1C000405040F01000E060A06AA0612069E06279
:10D1D000606044F24001E0688843E06010BD0000F8
:10D1E0001000020010B542485421FFF7DDFA414813
:10D1F0005421FFF7D9FA40485421FFF7D5FA3F49A7
:10D200003B483C4A3F4B08603D490A603A49196037
:10D21000531C0365481C1065012008653B48344ACF
:10D2200039A17844FFF788F920B9384878440A389A
:10D2300000F0D6FE37482F4A35A17844FFF77CF935
:10D2400020B9344878440A3800F0CAFE32482A4AE5
:10D250002FA17844FFF770F920B92F4878440A3895
:10D2600000F0BEFE40232248DC0000212246FFF7EA
:10D270001DFF20B125487844543800F0B1FE1D4808
:10D28000224640230021FFF711FF20B121487844B6
:10D29000543800F0A5FE1848224610230021FFF75D
:10D2A00005FF002806D01C487844BDE810405638D9
:10D2B00000F096BE10BD104870B5006D20F001045E
:10D2C0000B48FFF7AFF90B48FFF7ACF90A48FFF737
:10D2D000A9F909E0206D20F001052046FFF7A2F929
:10D2E0002046FFF7FCFA2C46002CF3D170BD00005D
:10D2F00018C400206CC40020C0C40020C801002055
:10D30000CC010020D001002072000000DA8900006A
:10D3100077000000C9890000B989000010B500F04D
:10D3200067FEBDE8104000F056BE00F079BE000078
:10D330000048704718C50020704770477047704715
:10D3400038B504460A460020694600F0D2FF00289E
:10D3500008BF38BD02460099204600F0B1FE01200A
:10D3600038BD012000F0B2BFF8B500F0B7FF0546A8
:10D3700000200C46102000BF0646A819A0420DD977
:10D3800032466946002000F0B4FF070008BF00F0F5
:10D390009DFF0098A04218BF0546C419FFF7C8FFBB
:10D3A00005600746F01D20F007004619284600F0EA
:10D3B0000AF8B44208BFF8BDA21B31463868BDE880
:10D3C000F84000F07DBE00210160C0E90110704707
:10D3D0001020704730B5B0F10A024FEA900E71F19B
:10D3E00000034EEA817EB0EB0E0061EB91014FEA43
:10D3F000101E4EEA017E10EB0E0041EB11114FEAB8
:10D40000102E4EEA016E10EB0E0041EB11214FEA97
:10D41000104E4EEA014E10EB0E0041EB1141401848
:10D4200041F100014FEAD00040EA41704FEAD101DA
:10D4300010EB80054FEA810444EA907444EB010448
:10D440006D1944EB0404521BA3414FF0000348BF85
:10D450000A3200D530BD401C41F1000130BD10B58D
:10D46000044600F019FE0068005D00F0010010BDE8
:10D4700070472DE9FF4F0C461E464FF0FF378BB02B
:10D48000D2E90001DDF860800A908A46C1F30A55AE
:10D4900005B93D46002108464FF00000BAF1000FE3
:10D4A00000F4400005DA00EB80004FF4400101EA8F
:10D4B00050004FEA9059B9F1010F00DDB9460A98C2
:10D4C00050EA4A000ED044F61050A5F2FF3545430D
:10D4D0002F14B8F1000F1ED07542291E1EDDC9F1B0
:10D4E00000021CE0B8F1010F4FF0000001D0302124
:10D4F00003E0F24305E02154401CB042FBDB304620
:10D500000022002121540B99C1F80880C1E90020B4
:10D510000FB0BDE8F08FBD1B6D1CDEE74A4600DA98
:10D52000694206A800F026FE06AB93E8070003ABAD
:10D5300083E8070050460A9900F066FF8DE807006F
:10D54000A0F500501F3800900398002D09DD42F22D
:10D550001F014A46084403A90390684601F0C5F933
:10D5600008E0A0F500504A461F3803A9039068461A
:10D5700001F0CFF98DE807000004000C03D04FF054
:10D58000FF30410800E01046B8F1000F03D0002240
:10D59000009215461EE0751E05D4FFF71BFF3032C2
:10D5A00062556D1EF9D5B3460122084302D0002210
:10D5B0007F1C04E02078302801D100227F1E002A41
:10D5C000099786D01DE0112D07DAFFF703FF3032EF
:10D5D00062556D1C50EA0102F5D1084302D0009853
:10D5E000C8B10EE00021681E05E0235C625C635454
:10D5F0002254401E491C8142F7DBAB46A81B401E4B
:10D600000990002004F80B000B98099AC0F80880D4
:10D61000C0E9002B7CE711264FF0000859E72DE9FF
:10D62000F04F88460446D21D22F0070191B0D1E99F
:10D630000001CDE90A0106F0FDFD02460B98C00F7E
:10D6400001D02D2007E02068810701D52B2002E0C2
:10D65000202101EAC000032A099001D0072A05DB36
:10D6600003464146204600F045FD0BE12078800648
:10D6700001D5E06900E00620B8F1650F814606D0CB
:10D68000B8F1660F18D0B8F1670F70D131E0002003
:10D69000B9F1110F009001DB112301E009F1010341
:10D6A0000AAA01A90CA8FFF7E4FEDDE90C70002628
:10D6B00009F10105834647E001204B4600904FF0F9
:10D6C00000470AAA01A90CA8FFF7D3FEDDE90DB0B7
:10D6D0000C995D46002610B909F101000D18B9EB4F
:10D6E000050003D4C0F1FF3609F10105A5EB0900DF
:10D6F0002BE0B9F1010F01DA4FF001090020B9F177
:10D70000110F0090484601DD112300E003460AAAEC
:10D7100001A90CA8FFF7ADFEDDE90C704D4600260F
:10D720008346207800070AD4AB4500DA5D4601A89D
:10D73000012D04DD411911F8011C302907D04F4596
:10D7400002DA17F1040F04DA012082460FE06D1EA1
:10D75000EEE7002F02DCED1B3E4403E0781CA842FC
:10D7600000DD7D1CB81B00F1010A4FF00047207856
:10D77000000703D4AA4501DB4FF0FF3A0021B7F1BF
:10D78000004F0DF143088DF8431024D002202B23C5
:10D79000002F01DA7F422D230A21021EA0F1010091
:10D7A00000DC5FB197FBF1FC97FBF1F201FB1C7C05
:10D7B00017460CF1300C08F801CDEEE7A8F1010096
:10D7C00003702188090501D5452100E06521A0F1FC
:10D7D000010800F8011C09980FA9A1EB0807FF1D1B
:10D7E00000B10120411901EBEA70A1693844081A1F
:10D7F000401EA0612078C00602D42046FFF796F8AC
:10D80000099828B1D4E901219047206A401C206280
:10D810002078C00622D52046FFF788F81EE0002EAB
:10D8200004DBB34502DD01A8805D00E03020D4E9CF
:10D8300001219047206A401C2062761CAAF1010059
:10D840005FEA000A0AD100F02FFCC0680168405C62
:10D85000D4E901219047206A401C2062281EA5F1CE
:10D860000105DCDC07E0D4E9012118F8010B904741
:10D87000206A401C2062381EA7F10107F3DC204615
:10D88000FFF76AF8032011B043E600002DE9F04FDE
:10D8900004460D46D21D22F0070089B0D0E900925F
:10D8A00048461746394606F0C5FC0246F80F01D037
:10D8B0002D2307E02068810701D52B2302E02021DA
:10D8C00001EAC0038DF820300BB1012000E00020F8
:10D8D000032A824601D0072A04DB2946204600F0AD
:10D8E00009FC3DE12078800601D40D2500E0E569C2
:10D8F000C7F30A560D2D49DA00214FEA175B084697
:10D900004FF00000002F00F4400007DA00EB800029
:10D910004FF4400100EBD07001EA6000811501294D
:10D9200001DD4FF0FF3100224FEA850CBCF1180FEA
:10D9300006D31346ACF118004FF08052C24003E00A
:10D940004FF4801323FA0CF30CF10C0CBCF1200FF4
:10D9500004D3ACF1200C09FA0CF001E007FA0CF04A
:10D9600000294FF0004801DD18B90FE00ED1404505
:10D970000CD319EB02095F4121B9404502D19F4305
:10D9800029EA0209BBEB175F00D0761C208800054E
:10D9900002D57B48784402E079487844193808AACF
:10D9A000302302F80A30037C0AF10101002E0AF14B
:10D9B000020A53546A4602DC4FF0300101E04FF096
:10D9C00031014FF001088DF8001002D0A6F2FF36A9
:10D9D00003E059EA470100D06A4E002D02DC2178AD
:10D9E000090704D54FF002082E218DF80110C44616
:10D9F00000210BE0C7F303433F01C35C491C6D1ECC
:10DA000002F80830052908F1010801DA002DF1DCDF
:10DA100000210CE000EB1973491C1B786D1E0829CE
:10DA200002F808304FEA091908F1010801DA002D5F
:10DA3000F0DC2178890602D514E0A8F10108E04560
:10DA400005DD02EB080111F8011C3029F5D0B8F111
:10DA5000000F07DD02EB080111F8011C2E2901D18E
:10DA6000A8F10108002D05DD3E2102F808106D1E09
:10DA700008F10108407C002E02F8080008F10108B6
:10DA800004DA2D20764202F8080002E02B2002F88A
:10DA900008000A214FF47A70864208F101080BDB76
:10DAA00096FBF0F3303302F8083096FBF0F308F100
:10DAB000010800FB136601E0642E0CDB642096FB7A
:10DAC000F0F3303302F8083096FBF0F308F1010868
:10DAD00000FB136601E00A2E06DB96FBF1F0303006
:10DAE00002F8080008F1010896FBF1F001FB106054
:10DAF000303002F80800A16908F1010808EB0502BE
:10DB000002EB0A00081AA0612078C00602D4204661
:10DB1000FEF70CFF216A08AE01EB0A00206204E068
:10DB2000D4E9012116F8010B9047BAF1010AF7D2A6
:10DB30002078C00602D52046FEF7F8FE6E4609E0C2
:10DB400016F8010B3E280FD0D4E901219047206A36
:10DB5000401C2062B8F10108F2D22046FEF7FCFE1C
:10DB600009B00320BDE8F08F206A2844206203E05A
:10DB7000D4E90121302090476D1EEBD3F8E7000077
:10DB80008787000002FCFFFF10B5436913B1AFF3B4
:10DB9000008001E0FEF703FF012010BD127800F1C4
:10DBA00024010A7000224A700122EDE711684FF04B
:10DBB000FF32E9E710B5436913B1AFF3008001E02C
:10DBC000FEF7F0FF012010BD128800F124018284CD
:10DBD0000022C2840122EDE711684FF0FF32E9E72D
:10DBE0002DE9F34F4FF0000A0C4656468DB0012048
:10DBF0000C9001F10C000B9062690B980121904789
:10DC0000051E2DD0252D2CD0216A8847C0B1626910
:10DC10000B9801219047216A88470028F7D1626953
:10DC2000411E0B98904700E0761CA1690D9888472B
:10DC3000216A88470028F7D1E1690D988847DBE71A
:10DC4000A1690D988847A842074601D1761CD3E701
:10DC5000E1690D9888477F1C02D1BAF1000F6FD09F
:10DC60006BE162690B9800273D46394690472A28A8
:10DC700004D162690B98012190470125DFF8D08219
:10DC800062690B9801219047A0F130010A290AD25C
:10DC90004745E5DC07EB870100EB4107303FDFD468
:10DCA00045F01005ECE7E90601D46FF000476C2859
:10DCB0000AD04C2814D0682815D06A280DD07428B2
:10DCC0001CD07A281AD01DE062690B980121904778
:10DCD0006C2802D045F0040514E045F002050DE083
:10DCE00045F020050AE062690B98012190476828F9
:10DCF00002D045F0080505E045F4006562690B981F
:10DD000001219047C4E9015765283DD019DC582806
:10DD10007AD00CDC452837D004DC252826D04128D1
:10DD20009ED131E046282FD0472899D12CE05B289E
:10DD300077D0612828D063287CD0642823D15AE08A
:10DD4000F6E06F2848D008DC66281DD067281BD075
:10DD5000692821D06E2816D127E0702845D0732875
:10DD600068D0752847D078280DD14DE0A1690D986D
:10DD70008847252805463FF469AFE1690D98884733
:10DD80006D1C3FF46AAFD8E00D9923466A466FF0E8
:10DD90000100AFF30080C5E045F0400023464FF09E
:10DDA00000026060A80736D43EE0E8077FF447AF82
:10DDB0002068011D21600068290501D506701BE758
:10DDC000290701D5068017E7A90703D5F117C0E990
:10DDD000006111E706600FE745F0400023464FF071
:10DDE00008026060A80716D41EE040F60E0125EA7E
:10DDF0000100606016E045F0400023464FF00A0243
:10DE00006060A80707D40FE045F040006060A807F5
:10DE100008D5234610220D996FF00100AFF3008062
:10DE200080E007E0102223460D996FF00100FEF715
:10DE3000ABFA77E04FF0000963284F46C8464B46DF
:10DE4000CB4602D05B2806D038E0E80601D401209A
:10DE5000A060012732E06269D4F80CB00B98012170
:10DE600090475E2807D14FF0010949466269D4F80E
:10DE70000CB00B989047216939B900210A4603ABD1
:10DE800043F82120491C0829FADBD8B3216949B39A
:10DE900008F1010862690B98012190475D28F4D1CF
:10DEA000B9F1000F09D0002003A951F82020D24376
:10DEB00041F82020401C0828F7DB03AB206900282C
:10DEC00020794FEA40701ED05B462246CDF8008094
:10DED000CDE901970D9900286FF0010020DAAFF32A
:10DEE00000801FE0C11703AA00EBD1614B1121F0A4
:10DEF0001F0102EB8302411A13680120884003438B
:10DF00001360C7E719E00D99224600286FF0010061
:10DF1000009702DAAFF3008004E0AFF3008001E085
:10DF2000AFF3008000280ADA401C06D10C9820B11B
:10DF30004FF0FF300FB0BDE8F08F5046FAE7E90729
:10DF400001D10AF1010A064400200C9054E60000B9
:10DF5000CCCCCC0C10B50146C268900703D090061B
:10DF600007D5886A0AE000F0A7F801210160881E41
:10DF700010BD8B69486818440B69C01A91F8483085
:10DF80001BB191F84910401A10BD1103FCD50028AF
:10DF9000FADD401E10BD70B516460C46054600F071
:10DFA0007BF8036893F80101012806D0FF2C0FD8F5
:10DFB000185D68B101202C7070BDD3F8070132469E
:10DFC000214603F2071303442846BDE87040184772
:10DFD0004FF0FF3070BD002801D000F057B87047F7
:10DFE00010B500F059F9BDE81040FFF7F4BF00008C
:10DFF00010B5002102A000F036F9012010BD00008C
:10E000005349475056464E3A2050757265207669FE
:10E01000727475616C20666E2063616C6C6564005F
:10E0200010B500F00EF8016919B1002202618847AD
:10E0300001E08068804700F00BF9000010B500F0A7
:10E0400007F970B500F034F804680546A4B920203B
:10E05000FEF716FC040011D0094900202C60C4E929
:10E0600000010849A1602073206160610649A06138
:10E0700009B100F05BF9E061204670BD00F0E8F8FE
:10E08000000000003DE000080000000001491820E9
:10E09000ABBEFEE72600020010B500F005F8001D3B
:10E0A00010BD00BFED750000004870471CC5002082
:10E0B0000048704730C500200048704734C5002034
:10E0C000034640688C46002818BF88423CBF034680
:10E0D0004068F8D318681844884207D00CF1030050
:10E0E00020F00700001D411A521A0146081D0A605F
:10E0F000FEF7F5BB2DE9F0411F46044603260168F3
:10E10000072A01F4006004DB08B116A505E016A596
:10E1100003E008B115A500E015A521F0100020606E
:10E12000A069C01EA0610FB1401EA0612046FEF78D
:10E13000FDFB4FB1D4E9012138469047206A401CCD
:10E140002062C01C206206E0206AFAE7D4E90121BF
:10E1500015F8010B9047761EF8D22046FEF7FCFB1F
:10E16000BDE8F0814E414E006E616E00494E4600A2
:10E17000696E66002DE9F047814616468AB033483D
:10E1800078440DC88DE80D0030487844801C03ACFD
:10E190000DC884E80D0041F69B300844372190FB00
:10E1A000F1F290FBF1F5A5F1800501FB12041B3C97
:10E1B00002D56442012000E00020DFF890A08046F4
:10E1C0000027FA44AAF1BE0A0DE0E00709D0324662
:10E1D000684607EB47010AEB810100F09AFB8DE8E6
:10E1E000070064107F1C002CEFD1184F7F44AC3F18
:10E1F00018E0E80714D007EB04100DF1180A90E8B6
:10E200000E008AE80E00C068F04201D1981908900B
:10E21000324606A903A800F07CFB03AB83E80700A5
:10E220006D10641C002DE4D132466946B8F1000F30
:10E2300003A802D000F059FB01E000F06AFBC9E935
:10E240000001C9F808200AB0BDE8F0872C80000062
:10E2500010B5002000F090F8AFF30080BDE810404A
:10E260000120FFF713BF70B505460C460A2000E0F9
:10E270006D1C00F079F835B128780028F8D102E05B
:10E28000641C00F071F814B120780028F8D1BDE8C2
:10E2900070400A2000F068B810B5014602A0FFF7F0
:10E2A000E2FF012010BD000053494752545245443B
:10E2B0003A2052656469726563743A2063616E271F
:10E2C00074206F70656E3A200000000010B500F0F9
:10E2D0005BF8BDE81040FFF77EBE0000124B6946B8
:10E2E00000F580528A421A6001D8114670471960C1
:10E2F000704730B50C4D6B46A3F580532C68224413
:10E300009A420FD89B1A02F5805003EBD37302EBAD
:10E310006303984200D91846C01D20F007020C6024
:10E32000101B2A6030BD0000D401002010B58820E9
:10E33000FEF7A6FA002801D00021017010BD802947
:10E3400002D808B1017809B100207047012100F816
:10E35000081B704718B100F10802914201D000205B
:10E36000704700210170704708B569468DF80000BC
:10E370000320ABBE08BD704710B500F02DF8BDE816
:10E380001040FFF728BE000010B5012805D000217D
:10E3900003A0FFF768FF012010BD09A1F8E7000006
:10E3A00053494752544D454D3A204F7574206F667E
:10E3B0002068656170206D656D6F727900000000E6
:10E3C0003A2048656170206D656D6F727920636FCA
:10E3D000727275707465640010B5002102A0FFF7B9
:10E3E00042FF012010BD0000534947414252543AB8
:10E3F0002041626E6F726D616C207465726D696E22
:10E400006174696F6E0000005FEA400C08BF91F014
:10E41000000F4FEA8C234FEAC12243EA51514FEAE1
:10E420001C5018BF00F5F0404FEA300018BF41F013
:10E4300000415FEA6C5C00F02980BCF1FF3F08BF3F
:10E4400040F080407047130C06BF12044FF0100CD0
:10E450004FF0000C130E04BF12020CF1080C130F46
:10E4600004BF12010CF1040C930F04BF92000CF1D5
:10E47000020CD30F04BF52000CF1010C11464FF0F7
:10E480000002A0F11F00A0EB0C00704711F0004F3C
:10E4900008BF704731F000413FF4D5AF0B0C06BF09
:10E4A00009044FF0100C4FF0000C0B0E04BF0902D2
:10E4B0000CF1080C0B0F04BF09010CF1040C8B0FBD
:10E4C00004BF89000CF1020CCB0F04BF49000CF112
:10E4D000010CCCF12003A0EB0C0022FA03F302FAAA
:10E4E0000CF241EA030100F10100704720F07F4C7B
:10E4F00080EA030023F07F47ACEB070303F57C536E
:10E5000000F0004003F1FF032DE980494FEA154B6D
:10E5100009B44FEA144325EA0B4E24EA03480FF2EC
:10E52000042606EB132749083E785FEA320203FB14
:10E530000667C7F5000707FB06F64FEA54374FEAB0
:10E54000D64606F1020607FB066CCCF1005C4FEAEA
:10E550001C472CEA074C07FB06F40CFB06F504EB02
:10E5600015464FEA961634BF00204FF000404FEAA0
:10E57000D13706FB07FC4FEA1C4C0CFB0BF7D21BF8
:10E5800003FB0CF761EB07010CFB0EF7B0EB074048
:10E5900072EB17420CFB08F734BFA2EB0742B2EB59
:10E5A000074261EB17414FEA0C444FEA910706FB23
:10E5B00007FC4FEA1C4C0CFB0BF7B0EBC74072EBAF
:10E5C000573203FB0CF734BFA2EBC742B2EBC74292
:10E5D00061EB57310CFB0EF7B0EBC70072EB5772D3
:10E5E0000CFB08F734BFA2EBC702B2EBC70261EB2A
:10E5F0005771039F4FEA816141EA921104EBCC0409
:10E600004FEAD1374FEA826206FB07FC42EA9012DA
:10E610004FEA80604FEA1C4C0CFB0BF7D21B03FB4C
:10E620000CF761EB07010CFB0EF7B0EB074072EB48
:10E6300017420CFB08F734BFA2EB0742B2EB0742CC
:10E6400061EB17414FEA8C554FEA910704EB9C248C
:10E6500006FB07FC4FEA1C4C0CFB0BF7B0EBC7406A
:10E6600072EB573203FB0CF734BFA2EBC742B2EB9D
:10E67000C74261EB57310CFB0EF7B0EBC70072EBF2
:10E6800057720CFB08F734BFA2EBC702B2EBC7020C
:10E6900061EB577115EB4C254FEA816141EA92110C
:10E6A0004FEA82624FEAD13742EA901206FB07FC3A
:10E6B00044F100044FEA80604FEA1C4C0CFB0BF75E
:10E6C000D21B03FB0CF761EB07010CFB0EF7B0EB61
:10E6D000074072EB17420CFB08F734BFA2EB07426E
:10E6E000B2EB074261EB174115EB1C154FEA813184
:10E6F00041EA92414FEA823242EA90424FEA803048
:10E700004FEA0C7644F1000448EA03434EEA0B4812
:10E710004FF0000EB2EB080C71EB030724BF62460A
:10E7200039464EEB0E0E4FF0000B00185241494196
:10E730004BEB0B0BB2EB080C71EB03077BF1000BFF
:10E7400024BF624639464EEB0E0E4FF0000B001808
:10E75000524149414BEB0B0BB2EB080C71EB030739
:10E760007BF1000B24BF624639464EEB0E0E51EA98
:10E77000020718BF46F0010616EB0E7655F10002AF
:10E7800054F1000103D5BDE88901BDE80088BDE86A
:10E790008901BDE80048B619524141EB0101A3F1DE
:10E7A0000103704780807F7E7D7C7B7A79787776E5
:10E7B00076757473727171706F6E6E6D6C6C6B6A5E
:10E7C0006A696868676666656464636362616160FC
:10E7D000605F5F5E5E5D5D5C5C5B5B5A5A59595879
:10E7E00058575756565555555454535352525251E3
:10E7F000515050504F4F4F4E4E4D4D4D4C4C4C4B39
:10E800004B4B4A4A4A49494948484847474747467F
:10E8100046464545454444444443434343424242BB
:10E8200042414141002B26D4770021D01CB54FEA4C
:10E83000370703B44FF010004FF010014FF0000005
:10E840000FBCBDE810400BF1010BBBF1010F08BF7D
:10E850005FEA170722BF12F1010211F101014FF027
:10E86000004143F1000300F0004043EA000070471C
:10E87000F9D35708DAE746EA064613F1400F4FEAA4
:10E8800016461FDD13F1200FDFBF16430A46002195
:10E8900020335B42C8D0C3F1200746EA064602FA9D
:10E8A00007F74FEA164646EA0706C3F1200722FAA1
:10E8B00003F201FA07F721FA03F14FF0000342EAED
:10E8C0000702B1E746EA020646EA06464FEA16465E
:10E8D00046EA0106BCBF46EA0646360C4FF0000386
:10E8E0004FF000024FF000019EE72DE9C04893462B
:10E8F00030B491E8380007C831EA400C48BF34EA28
:10E90000430C03D5FFF7F2FDFFF78CFFF0BCBDE829
:10E9100000882DE9C048934630B491E8380007C814
:10E9200010F0804F08BF13F0804F03D100F005F8BE
:10E93000FFF778FFF0BCBDE8008820F07F4780EA51
:10E94000030023F07F4C07EB0C03A3F57C5300F08E
:10E950000040A3F1FE0392F0000F00F0B38095F0A9
:10E96000000F00F077802DE901494FEA11404FEA8E
:10E97000144621EA004800FB06FC24EA064708FB8F
:10E9800006F607FB08F800FB07F718EB06484CEB08
:10E99000164C4FEA124B18EB07484FEA15464CEB62
:10E9A000174022EA0B4E0BFB06FC25EA06470EFB3E
:10E9B00006F607FB0EFE0BFB07F71EEB064E4CEBB5
:10E9C000164C4FF000061EEB074E4CEB174B18EBA6
:10E9D0000B0840F1000018EB0E0B58EB000840F15B
:10E9E00000008F1A4FF000013CBFC943661B14BFE3
:10E9F000B5EB040C00213CBFC943F61B4FEA17449A
:10EA00004EEA8E0E27EA04454FEA1C4704FB0762D4
:10EA10002CEA074C05FB07F70CFB05F604FB0CFC86
:10EA200016EB074642EB174216EB0C4642EB1C4234
:10EA30001BEB060658EB0202414146EA9E0601D551
:10EA4000BDE80189B619524141EB0101A3F101036F
:10EA5000BDE801894FEA14454FEA114724EA05460B
:10EA600021EA074C05FB07F406FB07F70CFB06F150
:10EA700005FB0CFC11EB074144EB17444FEA12472E
:10EA800011EB0C4144EB1C4422EA074C05FB07F256
:10EA900006FB07F70CFB06F605FB0CFC16EB07461E
:10EAA00042EB174216EB0C4642EB1C456A1854F138
:10EAB000000148BF7047B619524141EB0101A3F173
:10EAC0000103704795F0000F37D04FEA11424FEA2B
:10EAD000144721EA024624EA074C02FB07F106FB31
:10EAE00007F70CFB06F402FB0CFC14EB074441EBAC
:10EAF00017414FEA154714EB0C4441EB1C4125EA42
:10EB0000074C02FB07F506FB07F70CFB06F602FBBA
:10EB10000CFC16EB074645EB174516EB0C4645EB90
:10EB20001C42121951F1000148BF7047B6195241F9
:10EB300041EB0101A3F1010370474FEA14454FEA8D
:10EB4000114724EA054621EA074C05FB07F106FBBD
:10EB500007F70CFB06F24FF0000605FB0CFC12EB6E
:10EB6000074241EB174112EB0C4251EB1C4148BFED
:10EB70007047921841EB0101A3F10103704710B5F2
:10EB800005F0BDFF05F0BAFF05F06CFF10BD70B5D4
:10EB9000044600252946204606F010FE00BF204608
:10EBA00070BD00005A49096821F44031594AC2F841
:10EBB00004131146D1F8041342681143544A1160FA
:10EBC0000168496821F480710268516001684A68EF
:10EBD000016942EA0121026851600168496821F037
:10EBE0004071026851600168496882681143026897
:10EBF00051600168896821F40061026891600168D0
:10EC00008968C268114302689160434AC16A9142AF
:10EC100018D00168896821F070610268916001680C
:10EC20008968C26A1143026891600168896821F0AD
:10EC300040510268916001688968026B1143026863
:10EC400091600BE00168896821F070610268916051
:10EC50000168896821F04051026891600168896803
:10EC600021F002010268916001688A68816942EAC4
:10EC7000410102689160416AD1B10168496841F47B
:10EC80000061026851600168496821F460410268CE
:10EC9000516001684A68816A491E4FF4604393FAE3
:10ECA000A3F3B3FA83F399400A4301684A6005E08D
:10ECB0000168496821F40061026851600168C96A0D
:10ECC00021F470010268D1620168CA6A018C491E90
:10ECD00042EA01510268D1620168896821F4007139
:10ECE0000268916001688A68C16942EA412102684C
:10ECF00091600168896821F480610268916001680F
:10ED00008A68416942EA8121026891607047000087
:10ED100004230140002001400100000F10B5002233
:10ED200001B909E0012901D10A0205E0022901D156
:10ED30000A0201E04FF44072114B1B6823F4407348
:10ED40000F4C236023461B681343236023461B6834
:10ED500023F0F803236023461B68F82494FAA4F4F4
:10ED6000B4FA84F400FA04F444F002042343044C9B
:10ED7000236023461B6843F48033236010BD0000EA
:10ED8000103C024010B5024600200A4B1B6823F4D9
:10ED90004073084C236023461B68034323602346CB
:10EDA0001B6843F00403236023461B6843F480334D
:10EDB000236010BD103C0240074A126822F44072E2
:10EDC000054B1A601A4612681A601A46126842F019
:10EDD00001021A6001707047103C024010B50949E9
:10EDE000096821F44071074C21602146096841F40B
:10EDF000407121602146096841F0010121600260F3
:10EE0000436010BD103C0240084A126822F4407270
:10EE1000064B1A601A46126842F480721A601A464B
:10EE2000126842F001021A6001807047103C0240F3
:10EE3000084A126822F44072064B1A601A46126899
:10EE400042F400721A601A46126842F001021A6017
:10EE500001607047103C02402148006800F010003B
:10EE600028B12048C06940F010001E49C8611C4804
:10EE7000006800F0200028B11A48C06940F008007E
:10EE80001849C8611648006800F0400028B11548CC
:10EE9000C06940F004001349C8611148006800F0DF
:10EEA000800028B10F48C06940F002000D49C861D8
:10EEB0000B48006800F4807028B10A48C06940F02F
:10EEC00001000849C8610648006800F0020028B146
:10EED0000448C06940F020000249C8617047000042
:10EEE0000C3C0240A4C2002070B50446002500205E
:10EEF0001049C86100F06CFB054609E0601C38B1A0
:10EF000024B100F065FB401BA04201D9032070BD75
:10EF10000948006800F480300028EFD106480068F6
:10EF200000F4F97018B1FFF797FF0120EFE7002018
:10EF3000EDE70000A4C200200C3C024018B50246D8
:10EF40000020009000BF92F83C00012801D102206F
:10EF500018BD012082F83C0000BF0868092816D9B6
:10EF60001068C0680B780A3B03EB43040723A340F7
:10EF700098431368D8600B780A3B03EB4303886817
:10EF800098401368DB6818431368D86013E0106872
:10EF900000690B7803EB43040723A34098431368ED
:10EFA00018610B7803EB43038868984013681B696A
:10EFB0001843136818614868072817D21068406B17
:10EFC0000B795B1E03EB83041F23A3409843136854
:10EFD0005863088880B20B795B1E03EB830398406B
:10EFE00013685B6B18431368586331E048680D2859
:10EFF00017D21068006B0B79DB1F03EB83041F2310
:10F00000A340984313681863088880B20B79DB1F0C
:10F0100003EB8303984013681B6B18431368186352
:10F0200016E01068C06A0B790D3B03EB83041F23C5
:10F03000A34098431368D862088880B20B790D3BCF
:10F0400003EB830398401368DB6A18431368D862A4
:10F050001B4B1068984208D10868122805D119483E
:10F06000006840F48000C3F80403154B1068984210
:10F070001ED10868102802D00868112818D111483C
:10F08000006840F400000F4B1860086810280FD18A
:10F090000D4800680D4BB0FBF3F000EB8000400022
:10F0A000009002E00098401E009000980028F9D1DE
:10F0B00000BF002082F83C0000BF00BF48E700000E
:10F0C0000020014004230140B001002040420F0015
:10F0D00001460868C06C704710B504460CB90120A1
:10F0E00010BD1049E06A884200D000BF94F83D008E
:10F0F00028B9002084F83C00204600F015F80220D2
:10F1000084F83D002046FFF74DFD002020640120DB
:10F1100084F83D0000BF002084F83C0000BF00BF21
:10F12000DEE700000100000F704770B504460D4691
:10F1300000262068806800F4806070B120688068D4
:10F1400000F4807048B1042084F83D0000BF002026
:10F1500084F83C0000BF012070BD00F039FA06467B
:10F1600011E0681C78B125B100F032FA801BA8428A
:10F1700009D9032084F83D0000BF002084F83C003A
:10F1800000BF0320E8E72068006800F002000228C2
:10F19000E7D194F83D00252803D1352084F83D00BF
:10F1A00002E0152084F83D000020D5E708B50146AF
:10F1B0000020009000BF91F83C00012801D10220FE
:10F1C00008BD012081F83C0000BF91F83D002228D5
:10F1D00003D1322081F83D0002E0122081F83D0089
:10F1E0000868806800F00100A0B90868806840F0F5
:10F1F00001000A6890601B4800681B4AB0FBF2F0EF
:10F2000000EB4000009002E00098401E0090009843
:10F210000028F9D100BF002081F83C0000BF13484E
:10F22000006800F01F0058B90868806800F040507E
:10F23000A8B90868806840F080400A6890600EE0D5
:10F240000B4A086890420AD10868806800F0405074
:10F2500028B90868806840F080400A689060002003
:10F26000AEE70000B001002040420F00042301403F
:10F27000002001402DE9F04104460E4601270025FB
:10F2800000BF2748007E012802D10220BDE8F0819E
:10F2900001202349087600BF4CF25030FFF724FECE
:10F2A0000746002F34D1401E3060206801280FD15E
:10F2B000207C6168FFF766FD4CF25030FFF714FECA
:10F2C00007461848006820F00400164908601FE04F
:10F2D000A56817E0217C2846FFF720FD4CF250304E
:10F2E000FFF702FE07460F48006820F002000D49B4
:10F2F00008600846006820F0F80008600FB135602B
:10F3000005E06D1CD4E902100844A842E2D800BF11
:10F3100000BF00200249087600BF3846B6E700006B
:10F32000A4C20020103C02400348006840F00040A6
:10F330000149086000207047103C02402DE9F0416F
:10F3400006460F4614461D464FF0010800BF1F48F1
:10F35000007E012802D10220BDE8F08101201B4976
:10F36000087600BF4CF25030FFF7BEFD8046B8F182
:10F37000000F23D126B9E1B23846FFF71DFD12E098
:10F38000012E04D1A1B23846FFF73EFD0BE0022E5C
:10F3900004D121463846FFF74BFD04E022462B46B8
:10F3A0003846FFF71BFD4CF25030FFF79DFD8046BD
:10F3B0000748006820F001000549086000BF0020F0
:10F3C0000249087600BF4046C6E70000A4C20020FC
:10F3D000103C02400748006800F0004030B1064889
:10F3E00004490C3908600548086001E001207047B5
:10F3F0000020FCE7103C024023016745AB89EFCDBC
:10F40000F8B503460A460025002400200021CBE081
:10F41000012606FA01F5166806EA0504AC4271D128
:10F420005668022E02D05668122E13D1CF0803F16F
:10F43000200656F827004E07F70E0F26BE40B043B1
:10F440004F07FF0E1669BE403043CF0803F1200678
:10F4500046F8270018684F000326BE40B0431679CF
:10F4600006F003064F00BE40304318605668012E78
:10F4700008D05668022E05D05668112E02D0566864
:10F48000122E13D198684F000326BE40B0434F00A0
:10F49000D668BE4030439860586801268E40B0431D
:10F4A0001679C6F300168E4030435860D8684F0076
:10F4B0000326BE40B0434F009668BE403043D8603C
:10F4C000566806F08056B6F1805F6CD100BF384EAA
:10F4D000366846F48046364F3E603E46366806F44F
:10F4E0008046009600BF00BF324E8F0856F82700B6
:10F4F0008E07370F0F26BE40B0432F4EB34202D1C6
:10F50000002615E04FE02D4EB34201D101260FE059
:10F510002B4EB34201D102260AE02A4EB34201D15A
:10F52000032605E0284EB34201D1042600E005265B
:10F530008F073F0FBE4030431E4E8F0846F827000E
