:020000040800F2
:1000000018080020D9000008E1000008E3000008FB
:1000100000000000000000000000000000000000E0
:10002000000000000000000000000000E5000008E3
:100030000000000000000000E7000008E9000008E0
:10004000EB00000800000000EB000008EB000008D7
:10005000EB000008EB000008EB000008EB000008D4
:1000600000000000EB000008EB000008EB000008B7
:10007000EB000008EB000008EB00000800000000A7
:10008000EB0000080000000000000000EB0000088A
:1000900000000000EB000008EB000008EB00000887
:1000A000EB000008EB000008EB000008C1010008AD
:1000B000EB0000080000000000000000000000004D
:1000C0000448854600F06AF800F058F800480047F8
:1000D00049080008180800200448804704480047E1
:1000E000FEE7FEE7FEE7FEE7FEE7FEE74108000861
:1000F000C100000830B50B46014600202022012433
:1001000009E00D46D5409D4205D31D469540491B4B
:100110002546954040191546521E002DF1DC30BD94
:1001200003460B439B0703D009E008C9121F08C010
:10013000042AFAD203E00B780370401C491C521EBB
:10014000F9D27047D2B201E00270401C491EFBD2C6
:1001500070470022F6E710B513460A4604461946D2
:10016000FFF7F0FF204610BD0321001D401E03785D
:1001700012021A43491EF9D51046704770B5054C56
:10018000054D03E0206800198047241DAC42F9D1D9
:1001900070BD0000680F0008700F0008064C0125B4
:1001A000064E05E0E36807CC2B430C3C984710341F
:1001B000B442F7D3FFF788FF480F0008680F000824
:1001C0000149486809680847000000200A4888B0CB
:1001D00000880A4A8002059000200190029001A840
:1001E000039008200490009005A906A8039B00F046
:1001F00084FC00F0B3FA0000E075FF1F0010000857
:100200000001000070470000CD0100081CB5044645
:10021000001D00F05DFE002809D06168A0688847D5
:10022000684600F061FC0146201D00F061FC1CBD29
:10023000F0B58DB004460D460AA800F055FC014605
:10024000201D00F055FC69780220F3297ED1287A20
:100250002F468E4E0C37012808D0002805D069683B
:100260000978022924D0022871D0B2E0696809789F
:100270000129F4D12168854A032368460968083AB0
:100280005B0300F00FF9684600F076FA00287CD096
:1002900020684068066020680025C06805702068F6
:1002A000FF228068036841681846FFF74BFFEAE0C9
:1002B0002068416809680029E9D08168C068097927
:1002C000007809AA081A0890297A089B491E08A8EC
:1002D0000991994200DA10460678206869688268B8
:1002E000C06800781268491C10183246FFF718FFE2
:1002F0002068C0680178891901700020694608717A
:1003000020688168C0684A680078824258D102A893
:1003100000F05EFB03980090206841680A6801685D
:1003200005A8029B00F0E9FB6946087D087120687A
:10033000406801680831016021680020C9680870C0
:100340002068FF2280680368416801E042E03EE0E7
:100350001846FFF7F7FE01A800F00EFA00282FD08C
:10036000287A801B401E4207520F811A069207917D
:10037000686803918019401C0091029020684168D0
:100380000A68016804A8029B00E072E000F0B5FB77
:100390006946087C0871206840680268079951180E
:1003A000016068680799801941182068491C8068B5
:1003B000069A0068FFF7B4FE2068069AC0680270CB
:1003C00001A800F0E0F9002853D138715CE003295E
:1003D00002D004200DB0F0BD2068416809680029F2
:1003E00047D000216A461171C1680978002915D0EB
:1003F000816806A800F0ECFA079800902068416830
:100400000A68016803A8069B00F077FB6946087B31
:100410000871206840680168083101602168002087
:10042000496803E032781018C0B2761C0A68B242FC
:10043000F8D8C043C6B201A800F0A5F9002818D129
:1004400068684078B04214D111480890082009909B
:10045000009020680D4A0168083A02A8089B00F045
:100460004CFB6946087A087101A800F08CF9002855
:1004700001D00620AEE7002504A800F0ADFA0598EB
:10048000A060049860603D710020A3E70810000898
:10049000DA0E000801200249C0068860704700009B
:1004A00000ED00E0FFB581B00126F6021F461446BC
:1004B00000960299019800F075F9019800F05CF936
:1004C00000284CD0029800F0A9F8029800F08AF9B0
:1004D000244D28697F21C90008432861E71918E0E5
:1004E00068690221084368611F20C0062018C00304
:1004F000800E6969C000FF22F932914308436861A8
:1005000068690121090408436861029800F06AF9EA
:10051000A419A742E4D86969022081436961286867
:10052000800511D528680121490288432860286880
:1005300030432860BFF34F8FBFF36F8F2868B043FD
:100540002860286808432860029800F05BF8684635
:10055000019C029900F01CF968460078207005B0F3
:10056000F0BD0000002002400FB4F8B50A9F08203B
:1005700006AC009007CC1E463B4600F013F90698E7
:1005800000F0FAF8002837D0079800F047F80798ED
:1005900000F028F91A4801697F22D2001143016155
:1005A0004169012211434161002413E03019FFF732
:1005B000DBFD08990D192860201D3018FFF7D4FDC8
:1005C0006860079800F00EF90D4801694908490074
:1005D00001610834A742E9D809484169490849003E
:1005E0004161079800F00EF86846069C079900F0F4
:1005F000CFF8684600782070F8BC08BC04B01847F3
:100600000020024010B500F0EDF803484169820473
:100610001143416110BD00000020024004484169BF
:10062000002903DA034981600349816070470000B3
:100630000020024023016745AB89EFCD70B5294DFD
:100640000446E8698006C00F15D028688006C00FF0
:1006500011D06068002809D0686A6268C1B2A068D9
:100660009047E8698006C00FF6D104E0686AE8693F
:100670008006C00FFAD1E86940210006C00F0028AB
:1006800015D028680006C00F11D06069A269904299
:1006900006D260690078A8626069401C606106E06B
:1006A0002868802290432860286808432860E86909
:1006B0004006C00F13D028684006C00F0FD0296233
:1006C0002868884328600020A061606120460C30C3
:1006D00000F0FEFB002802D0E1682069884708206E
:1006E000286270BD003801407CB5002545608560FA
:1006F00001600C3000F0F8F904460C3C8560C560E0
:100700002146684600F086F9104801994160009939
:100710000F4A016010680121490708431060106802
:10072000042108431060106808210843106002206B
:10073000D0622320D0601068012108431060C806F1
:10074000044908600449086020467CBD0000002080
:100750000038014080E200E000E100E072B6BFF343
:100760004F8F04490248C860BFF34F8F00BFFDE7B9
:100770000400FA0500ED00E00078002801D0002018
:100780007047012070470078002800D00120704792
:10079000034909698905490E00D005210170704798
:1007A0000020024070B5044608681D46049EA84219
:1007B00013D30121C9068A420FD3401B401890422F
:1007C0000BD331461046FFF795FC002905D1314681
:1007D0002846FFF78FFC002902D00520207070BD4D
:1007E0000020FBE70120034900040A680242FCD113
:1007F000704700001020024002E008C8121F08C124
:10080000002AFAD17047002001E001C1121F002A1E
:10081000FBD17047034804491B2206C003491C2230
:1008200006C0704708000020003801400044004026
:100830000248002101604160704700000000002074
:1008400010B5FFF727FE10BDFFB05B48B3B00088BE
:100850005A4A80021F90ACA8064611900823012036
:10086000AEAF00901FA915461C4612933846FFF7FD
:1008700099FF3846FFF780FF002804D0294630460C
:100880002246FFF74DFCAEA8FFF776FF002813D0F5
:100890004B4A0020ACA90B5C145CA34203D1401C62
:1008A000C0B20828F7D3082806D14649081F0068B7
:1008B00080F308880868804743494A6B0120024357
:1008C0004A63414940310A6802430A603F4802686E
:1008D00018231A43026005200007426A0F231B02F7
:1008E0009A434262426A8B151A43426202680323AA
:1008F0001B059A430260026801235B051A430260EC
:10090000426AF0239A434262426A10231A434262C7
:10091000026803239B049A43026002680123DB04FC
:100920001A43026008685A1110430860E12252021B
:10093000B1A9A5A8FFF7D8FE08210024AFA82094EC
:100940001691159020A804711FA8199020A81A903C
:1009500015A81B9021A81C9022AAA5A901A800F007
:100960001BFA01A80A9008A804730AA90C9413A8FA
:100970000D9400F079F8149804901398039019A935
:100980000FA80E9100F0B0F80EA917A800F082F899
:1009900018980D9017980C900EA91DA800F024F837
:1009A0001D9913910A981E9914914161139901613F
:1009B00001A800F049F9FBE7E075FF1F00100008EF
:1009C000DA0E000804120008001002400000014086
:1009D00006C906C0704700000149002206C07047E2
:1009E000E5090008FFF7BAFE014A0260416070475E
:1009F000F509000806490A46096D403249100818F1
:100A0000D168127CD20702D00268511809680847E1
:100A1000E40E0008014A026041607047210A0008A4
:100A200005498A68521010180A7A4968D20702D01C
:100A30000268511809680847E40E0008014A02607C
:100A400041607047490A000806490A46096A1C3293
:100A50004910081811681279D20702D0026851189B
:100A600009680847E40E0008014A026041607047C7
:100A7000750A0008064A1346926B2033521010186C
:100A80005A691B7EDB0702D003689A181268104768
:100A9000E40E0008014A026041607047A10A0008A4
:100AA000064A1346926C4033521010185A681B7A4B
:100AB000DB0702D003689A1812681047E40E00089A
:100AC000014A026041607047CD0A0008054A9369F7
:100AD0005B101818137E5269DB0702D003689A185E
:100AE00012681047E40E0008002101604160704761
:100AF0004A68426009680160704738B5049C0094F8
:100B0000FFF732FD38BD0000024801682022114382
:100B1000016070470038014030B583690246012406
:100B20002032002B05D00025012B0CD0022B1BD12D
:100B30001BE013787E2B18D17E2916D043681970DC
:100B4000C461846111E07E290AD0C369084CA342C4
:100B50000AD2C46943681955C3695B1CC36104E0C8
:100B600002238361547000E08561117030BD000084
:100B70000A0200007E2807D07D2805D0112803D066
:100B8000132801D0002070470120704710B50023C2
:100B90001A4603E084182478E318521C9142F9D8CD
:100BA000D843C0B210BD01212030817070470000D1
:100BB000FFB5486883B023490191009006990598D4
:100BC000FFF7E4FF07467E2100980124017000250D
:100BD00015E00598401906783046FFF7CBFF00284E
:100BE00007D02020464000987D210019641C017028
:100BF000A4B200980019641C0670A4B26D1C06987B
:100C0000A842E6D83846FFF7B5FF002807D02020D5
:100C1000474000987D210019641C0170A4B200981F
:100C20007E2200190770641C0099A0B209180A708E
:100C3000401C80B2019000990398019A06C007B049
:100C4000F0BD00000A020000F0B5044600208FB09D
:100C5000264620360790707800287DD04D480168E0
:100C60002023994301600020707001200246079004
:100C700000200546014614E0636800289C465B5C42
:100C800015D00020312B1AD0332B18D05D2B16D065
:100C90005E2B14D0002267467B556D1C002A03D0C2
:100CA000491CE3698B42E7D800280DD10AE07D2B6F
:100CB00003D000200028EED0F0E70120FAE720273B
:100CC0007B40E8E7002A00D10025FF21681E07319C
:100CD000884246D260686D1E294605950490FFF74C
:100CE00055FF01466068425D91423AD1FF300830BD
:100CF0000C90059AFF210498043100900D910C98F6
:100D0000019203910290A268002A28D06946E06807
:100D10009047002823D008A802A9FFF759FE2146D2
:100D20000AA8099B089AFFF743FF206800236D4635
:100D30000B9A0A992B764569AB4207D14161891814
:100D400081611448016880221143016006A8FFF701
:100D500013FD002803D000E003E0002007900020EE
:100D60003070B07800280BD00020B07020461030D2
:100D700000F0AEF8002806D021696069884702E0DB
:100D80000798002804D00020A0612068FFF7BCFE6F
:100D90000FB0F0BD0038014030B587B006C0002567
:100DA000056045600830FFF79FFE0446103C8560F3
:100DB000C5601030057045708570214604A825680F
:100DC000FFF77EFE0498009005980190A8600098B7
:100DD0006860214602A82568FFF730FE029800905F
:100DE0000398019028610098E8602068FFF78CFE66
:100DF000204607B030BDF0B589B00C4600216A46E8
:100E000003910646117405A8059107901176606854
:100E1000012702AB032801D3012500E00025002DA6
:100E200021D02268C01E9578854201D1012500E0BD
:100E30000025002D17D010786A461072206840787F
:100E4000507222689078002805D0D21C0092694622
:100E50000871052204E06846009101710522694687
:100E6000181DFFF75DF9002D2ED0B06800282BD09B
:100E70006846007A3179814226D1A168207B091D1C
:100E800000916B46001F1871052269460798FFF70D
:100E900047F9B26802A9F0689047410602D00021E4
:100EA0006A4611766A46A168127A0A706A46A16893
:100EB000527A4A70A1686A468870A068117EC17033
:100EC000107E001DE06000E00027384609B0F0BD4C
:100ED0000068002800D0012070474B4F474AA47497
:100EE000F4B40000000000003D060008000000000F
:100EF0003D06000800000000190B0008000000007B
:100F0000A70B000800000000190B000800000000FB
:100F1000A70B000800000000F70D0008000000000B
:100F2000F70D00080000000031020008000000007A
:100F30000D0200080000000031020008000000005F
:100F40000D02000800000000700F000800000020E3
:100F500018000000F8070008880F0008180000209B
:100F60000008000006080008C9F8FFFFA9F8FFFF05
:100F70000000000000000000000000000000000071
:080F8000000000000000000069
:101000004B4F474AA474F4B40000140001000000E0
:10120000E00800206D13000875130008771300082C
:1012100000000000000000000000000000000000CE
:10122000000000000000000000000000791300082A
:1012300000000000000000007B1300084D140008AF
:101240007F130008000000007F1300087F130008D0
:101250007F1300087F1300087F1300087F13000826
:10126000000000007F1300087F1300087F130008B0
:101270007F1300087F1300087F13000800000000A0
:101280007F13000800000000000000007F1300082A
:10129000000000007F1300087F13000835140008C9
:1012A000411400087F1300087F1300087D14000814
:1012B0008914000800000000000000000000000089
:1012C00000F002F800F043F80CA030C808382418E9
:1012D0002D18A246671EAB4654465D46AC4201D16E
:1012E00000F035F87E460F3E0FCCB646012633425D
:1012F00000D0FB1AA246AB4633431847F002000069
:1013000010030000103A02D378C878C1FAD8520707
:1013100001D330C830C101D504680C6070470000AB
:101320000023002400250026103A01D378C1FBD801
:10133000520700D330C100D50B6070471FB500F0D5
:1013400033F81FBD10B50020C046C04610BD00F0E8
:1013500041F81146FFF7F2FF00F042F900F059F8AA
:1013600003B4FFF7EFFF03BC00F05CF807488047C9
:1013700007480047FEE7FEE7FEE7FEE7FEE7FEE779
:1013800004480549034A054B70470000D915000879
:10139000C1120008E0000020E0080020E00000206A
:1013A000704770477047000070B5064C7C44064D8E
:1013B0007D4403E0206800198047241DAC42F9D128
:1013C00070BD00005C020000700200000048704721
:1013D000800000207546FFF7F9FFAE46050069461C
:1013E0005346C008C000854618B020B5FFF7C8FFB7
:1013F00060BC00274908B6460026C0C5C0C5C0C5A8
:10140000C0C5C0C5C0C5C0C5C0C5403D49008D46AA
:10141000704710B50446C046C0462046FFF7A0FFFF
:1014200010BD000001491820ABBEFEE726000200F7
:1014300070470000014948680968084760000020BB
:101440000149C868896808476000002009480022EF
:10145000006800280CD0017A002904D006490B69E5
:101460009B089B000B61C1688A4201D0C06800479D
:10147000704700000000002000E000E001494868DB
:1014800009680847700000200149C8688968084752
:101490007000002013491248886013480168021444
:1014A000914301600168032252029143FF31FF31F1
:1014B000023101600D4801680722D20291430160A8
:1014C0008168C908C900816009490A68D208D20048
:1014D0000A60016801221206914301607047000012
:1014E0000012000800ED00E0007000400010024013
:1014F00000200240FFB581B01C4617460E0007D001
:10150000019D02E02846B047ED192046641EF9D23D
:10151000019805B0F0BD000001480021016070474E
:10152000000000200F48114A0F4B82600E4908331B
:101530000AC00D4A0D4B001D1C321B1D0EC00B4A6C
:10154000094B0832826030330AC0074A074B001D3E
:1015500044320C330EC0044B044A583310328260BC
:101560000AC070472400002000000240000802402A
:1015700003480449172206C00349182206C07047D1
:1015800004000020005400400058004010B5022321
:10159000082202490248FFF7ADFF10BDE51500081B
:1015A00060000020034804491B2206C003491C2296
:1015B00006C070471400002000380140004400407D
:1015C00010B50223082202490248FFF793FF10BD1D
:1015D000E51500087000002010B5FFF75BFF10BD97
:1015E0000020704700210160416070472416000808
:1015F0000000002024000000041300084816000822
:1016000024000020BC080000201300080DFFFFFF8D
:1016100015FFFFFF5DFFFFFF75FFFFFF89FFFFFF66
:10162000A1FFFFFF0000000000000000000000001C
:1016300000000000000000000000000000000000AA
:081640000000000000000000A2
:00000001FF
